:04000000E3EF00F03A
:100008004682FACF2DF0FBCF2EF0E9CF2FF0EACFC2
:1000180030F0E1CF31F0E2CF32F0D9CF33F0DACFA0
:1000280034F0F3CF35F0F4CF36F0F6CF37F0F7CF22
:1000380038F0F8CF39F0F5CF3AF046C03BF047C07A
:100048003CF048C03DF049C03EF09EB69DA65DD04C
:100058009D969E961DEC0EF02B6E2C6AD89023343C
:10006800D96E2434DA6E7A0ED926000EDA222BC025
:10007800DEFF2CC0DDFF234A242A245004E10C0EA5
:10008800235CD8A041D0000E246E000E236E7CC0E5
:1000980026F000017A51CFEC0DF026C00DF027C0F4
:1000A8000EF09C0E0D240B6EFF0E0E200C6E7EC003
:1000B80021F07FC022F080C01FF081C020F082C0F4
:1000C8001BF083C01CF086C026F000018451CFECE1
:1000D8000DF026C019F027C01AF088C015F089C0A5
:1000E80016F00C0E00018A25136E000E8B21146E7B
:1000F8008CC017F08DC018F08EC011F08FC012F0B0
:1001080090C00FF091C010F09D86A1B2A0A231D08E
:10011800A192D80E276EEF0E266E18EC0EF007503F
:100128000810D8B403D00706D8A008060550061052
:10013800D8B403D00506D8A0060603500410D8B4D6
:1001480003D00306D8A0040601500210D8B403D087
:100158000106D8A0020603500410D8A40AD0000E45
:10016800046E0F0E036E252A81A002D0458001D0AF
:1001780045903EC049F03DC048F03CC047F03BC008
:1001880046F03AC0F5FF39C0F8FF38C0F7FF37C06E
:10019800F6FF36C0F4FF35C0F3FF34C0DAFF33C0D2
:1001A800D9FF32C0E2FF31C0E1FF30C0EAFF2FC003
:1001B800E9FF2EC0FBFF2DC0FAFF46921100F5EFB4
:0201C8000CF039
:10100000002820532043200028205320452000287A
:10101000205320492000282053204D200028205311
:10102000204F2000282053205020002820532052F9
:101030002000282053205420002820532056200030
:0F104000282053206C2000282053206D20000012
:101050006CEC0CF0820E0001AB6FDD0EE82EFED7BB
:10106000AB2FFCD700D0F28EF28C9D86A082D80EDA
:10107000406EEF0E3F6E13EC0EF08B928B908980DA
:101080008B8481A01CD007500810D8A40AD00BC0B4
:1010900042F00CC043F019EC0CF0000E086E0A0E82
:1010A000076E05500610D8A40AD013C043F014C030
:1010B00044F0BDEC0BF0000E066E140E056E0150F0
:1010C0000210D8A42BD0000E0001AD6F000E026EEE
:1010D000FA0E016E000EAD6F0D0EAD6501D01ED083
:1010E000AD51020D600EF324D96E000EF420DA6EBD
:1010F000DECFABF0DDCFACF0010EAB27000EAC23A2
:10110000AD51020D600EF324D96E000EF420DA6E9C
:10111000ABC0DEFFACC0DDFFAD2BDED70C0E25640F
:101120008BD1000E256E88D160C03FF061C040F0C9
:1011300021C041F022C042F092EC0DF03F5040102F
:10114000D8B49FD7240E0001966F100E976FCFEC86
:101150000CF021C099F022C09AF045EC0AF0000E84
:10116000406E000E3F6E21C041F022C042F0A7EC5D
:101170000DF087D764C03FF065C040F01FC041F05C
:1011800020C042F092EC0DF03F504010D8B479D717
:10119000160E0001966F100E976FCFEC0CF01FC06B
:1011A00099F020C09AF045EC0AF0000E406E020E55
:1011B0003F6E1FC041F020C042F0A7EC0DF061D798
:1011C00066C03FF067C040F015C041F016C042F065
:1011D00092EC0DF03F504010D8B453D7320E0001BE
:1011E000966F100E976FCFEC0CF015C099F016C0EB
:1011F0009AF045EC0AF0000E406E030E3F6E15C0EB
:1012000041F016C042F0A7EC0DF03BD768C03FF0AC
:1012100069C040F00DC041F00EC042F092EC0DF0FC
:101220003F504010D8B42DD72B0E0001966F100EF2
:10123000976FCFEC0CF00DC099F00EC09AF045EC12
:101240000AF0000E406E040E3F6E0DC041F00EC05D
:1012500042F0A7EC0DF015D76AC03FF06BC040F02C
:1012600017C041F018C042F092EC0DF03F50401012
:10127000D8B407D7390E0001966F100E976FCFECD8
:101280000CF017C099F018C09AF045EC0AF0000E67
:10129000406E050E3F6E17C041F018C042F0A7EC3B
:1012A0000DF0EFD66CC03FF06DC040F013C041F0C0
:1012B00014C042F092EC0DF03F504010D8B4E1D68B
:1012C000470E0001966F100E976FCFEC0CF013C015
:1012D00099F014C09AF045EC0AF0000E406E060E2C
:1012E0003F6E13C041F014C042F0A7EC0DF0C9D618
:1012F0006EC03FF06FC040F019C041F01AC042F01C
:1013000092EC0DF03F504010D8B4BBD60F0E000148
:10131000966F100E976FCFEC0CF019C099F01AC0B1
:101320009AF045EC0AF0000E406E070E3F6E19C0B1
:1013300041F01AC042F0A7EC0DF0A3D670C03FF008
:1013400071C040F01BC041F01CC042F092EC0DF0A7
:101350003F504010D8B495D61D0E0001966F100E68
:10136000976FCFEC0CF01BC099F01CC09AF045ECC5
:101370000AF0000E406E080E3F6E1BC041F01CC00C
:1013800042F0A7EC0DF07DD645A00FD0400E000135
:10139000966F100E976FCFEC0CF0000E00019A6F55
:1013A000010E996F45EC0AF06CD6400E0001966F65
:1013B000100E976FCFEC0CF0000E00019A6F000E2C
:1013C000996F45EC0AF05DD676C03FF077C040F0EB
:1013D00011C041F012C042F092EC0DF03F504010AD
:1013E000D8B44FD6010E0001966F100E976FCFEC58
:1013F0000CF011C099F012C09AF045EC0AF041D6F9
:1014000078C03FF079C040F00FC041F010C042F00A
:1014100092EC0DF03F504010D8B433D6080E0001C6
:10142000966F100E976FCFEC0CF00FC099F010C0B4
:101430009AF045EC0AF025D62550000AD8B474D6A7
:10144000010AD8B41ED6030AD8B494D6010AD8B477
:10145000B7D6070AD8B4DAD6010AD8B4FDD6030A3B
:10146000D8B420D7010AD8B443D70F0AD8B466D766
:10147000010AD8B406D6030AD8B486D7010AD8B46C
:10148000A3D7070AD8B4BCD7FCD599C03FF09AC0FF
:1014900040F0270E426E100E416EA5EC0CF03F504E
:1014A000300F00019B6F99C03FF09AC040F0270EAB
:1014B000426E100E416E19EC0DF03FC099F040C025
:1014C0009AF099C03FF09AC040F0030E426EE80EC9
:1014D000416EA5EC0CF03F50300F00019C6F99C09D
:1014E0003FF09AC040F0030E426EE80E416E19ECD8
:1014F0000DF03FC099F040C09AF099C03FF09AC0FB
:1015000040F0000E426E640E416EA5EC0CF03F50B0
:10151000300F00019D6F99C03FF09AC040F0000E5F
:10152000426E640E416E19EC0DF03FC099F040C060
:101530009AF099C03FF09AC040F0000E426E0A0E39
:10154000416EA5EC0CF03F50300F00019E6F99C02A
:101550003FF09AC040F0000E426E0A0E416E19EC48
:101560000DF03F50300F00019F6F9B51E8EC0DF0E4
:10157000200EE8EC0DF000019C51E8EC0DF0200E7F
:10158000E8EC0DF000019D51E8EC0DF0200EE8ECC8
:101590000DF000019E51E8EC0DF0200EE8EC0DF08E
:1015A00000019F51E8EC0DF0200EE8EC0DF0290E43
:1015B000E8EC0DF01200948E949C900EAB6E00013E
:1015C000A205A311D8A434D0240EAC6E9EC09AF00C
:1015D0009FC09BF0A0C09CF0A1C09DF0000E966F34
:1015E0005A0E976F620E986F020E996F56EC0BF0C1
:1015F000F00E00019625A66FFF0E9721A76FFF0E34
:101600009821A86FFF0E9921A96FA6C096F0A7C0D8
:1016100097F0A8C098F0A9C099F0100E9A6F000E2C
:101620009B6F000E9C6F000E9D6F56EC0BF034D03C
:10163000200EAC6E9EC09AF09FC09BF0A0C09CF0A4
:10164000A1C09DF0000E0001966F5A0E976F620EBA
:10165000986F020E996F56EC0BF0C00E00019625A4
:10166000A66FFF0E9721A76FFF0E9821A86FFF0EA0
:101670009921A96FA6C096F0A7C097F0A8C098F0CE
:10168000A9C099F0400E9A6F000E9B6F000E9C6FE0
:10169000000E9D6F56EC0BF096C0A4F097C0A5F01D
:1016A000B896A4C0AFFF9D8A9D981200000E406EB0
:1016B00000019DAF0AD09D1F9C1F9B1F9A6D000EBD
:1016C0009B239C239D23010E406E99AF0AD0991F46
:1016D000981F971F966D000E972398239923010E4C
:1016E000401A000E416E000E426E000E436E000E58
:1016F000446E9A519B119C119D11D8B42AD0010EB1
:101700003F6E06D0D8909A379B379C379D373F2A3B
:101710009DAFF8D7D89041364236433644369A5179
:10172000965D9B5197599C5198599D519959D8A0B4
:1017300009D09A51965F9B51975B9C51985B9D5144
:10174000995B4180D8909D339C339B339A333F2ED5
:10175000E1D74050D8B408D0441E431E421E416C0D
:10176000000E42224322442241C096F042C097F02C
:1017700043C098F044C099F0120043C099F044C0AF
:101780009AF00001D89099379A37D89099379A37BC
:1017900099C03FF09AC040F0000E426E030E416EB9
:1017A000A5EC0CF0300E3F263F50096E0A6A510E30
:1017B000406E310E59EC0DF0000E406E320E59ECB9
:1017C0000DF0080E406E350E59EC0DF05D0E406EBA
:1017D000360E59EC0DF009C040F0370E59EC0DF003
:1017E000100E406E380E59EC0DF0000E406E390EA2
:1017F00059EC0DF0FF0E406E3A0E59EC0DF0640EF0
:10180000406E3B0E59EC0DF0670E406E3C0E59ECED
:101810000DF09C0E406E3D0E59EC0DF0080E406E22
:10182000300E59EC0DF0000E406E300E59EC0DF0FC
:10183000120042C096F043C097F00001D89096374E
:101840009737D8909637973796C092F097C093F015
:10185000946B956B500E406E310E59EC0DF0000EEE
:10186000406E320E59EC0DF0080E406E350E59ECFC
:101870000DF0A90E406E360E59EC0DF0A40E406E20
:10188000370E59EC0DF092C040F0380E59EC0DF0C7
:1018900093C040F0390E59EC0DF0380E406E3A0E00
:1018A00059EC0DF0000E406E3B0E59EC0DF0320E6F
:1018B000406E3C0E59EC0DF0380E406E3D0E59EC6A
:1018C0000DF0080E406E300E59EC0DF0000E406E1B
:1018D000300E59EC0DF01200DCEC0DF0948E949C5F
:1018E000939E9290020E816E949294909494000E26
:1018F00000019E6F4B0E9F6F000EA06F000EA16F38
:10190000000EA36F010EA26FDBEC0AF0F3EC0DF0FA
:1019100005EC0EF0FCEC0DF0C2EC0DF0B5EC0DF0AA
:101920000D0E0001AA6FFB0EE82EFED7AA2FFCD7E2
:1019300000D078EC0DF00D0E0001AA6FFB0EE82E22
:10194000FED7AA2FFCD700D01200000E0001986F1E
:10195000000E976F41504210D8B41CD0010E966F04
:1019600004D0D89041364236962B42AEFAD7D89062
:101970009737983741503F5C42504058D8A005D027
:1019800041503F5E4250405A9781D8904232413296
:10199000962FEDD797C03FF098C040F01200000E90
:1019A00000019B6F96C03FF097C040F03AEC0DF0FD
:1019B0003F5000019A6F14D09B51010D96C098F0D2
:1019C00097C099F0F3509827F450992398C0F6FFE8
:1019D00099C0F7FF0800F550E8EC0DF000019B2BD3
:1019E0009A519B5DD8B01200E7D7420EF66E1C0EDE
:1019F000F76E000EF86E00EEAEF010EE04F0090087
:101A0000F5CFEEFFE550E150FAE100EE60F0360E62
:101A1000EE6AE806FDE1456A00EE01F0250EEE6A89
:101A2000E806FDE146904692000EF86E000128EFB0
:101A300008F041504210D8B418D0010E436E04D0C3
:101A4000D89041364236432A42AEFAD741503F5CE5
:101A500042504058D8A004D041503F5E4250405AB6
:101A6000D89042324132432EF1D73FC03FF040C0C0
:101A700040F012003FC043F040C044F002D0434A5F
:101A8000442A43C0F6FF44C0F7FF0800F5500009A0
:101A9000D8A4F5D73FC041F040C042F0411E421EDD
:101AA000414A422A435041243F6E44504220406EF6
:101AB0001200416E8B948B84210EE82EFED700F02D
:101AC0008B94020E0DEC0EF0850EE82EFED700F082
:101AD00041500DEC0EF0850EE82EFED700F0405080
:101AE0000DEC0EF0850EE82EFED700F08B84120070
:101AF000800E406E0F0E59EC0DF0020E406E280E57
:101B000059EC0DF0A00E406E290E59EC0DF0010EAF
:101B1000406E2A0E59EC0DF0000E406E0F0E59EC7F
:101B20000DF01200000E446E000E436E3F5041183F
:101B300004E140504218D8B402D0010E01D0000E8A
:101B4000436E446A43C03FF044C040F01200D89056
:101B50003F34D96E4034DA6E600ED926000EDA2298
:101B600041C0DEFF42C0DDFF12008B848B948B846A
:101B70008B94210EE82EFED700F0C00E0DEC0EF077
:101B80008B841200A092B19AB198B1963F0EB11613
:101B9000B182000EB26E000EB36EB18012002A6EDA
:101BA00026502AC028F0296A28C029F0286A28105F
:101BB000266E2950276E1200000E0F01386F000E9E
:101BC000396F000E3A6F000E3B6F000E3C6F120033
:101BD0003F6E9E983FC0ADFF9EA8FED7210EE82E17
:101BE000FED700F01200340EC66E000EC76E928A49
:101BF00094869488949A12009D90CD8ACD98CD9623
:101C00003F0ECD16CD82CD801200300E6C6E000ED0
:101C10006D6E95909582959812003F6E3FC06FFF54
:101C20006DB01200FDD74050B36E3FC0B2FF12003E
:101C30002750B36E26C0B2FF1200C9CF26F026503F
:061C400012000C0001007F
:020000040020DA
:08000000FFFFFFFFFFFFFFFF00
:020000040030CA
:0E000000FF321F3FFFBF81FF0FC00FE00F4018
:00000001FF
