:040000000AEF03F010
:060008005F820CEF03F023
:100018005F80D8CF65F2E8CF66F2E0CF67F2FACF1B
:1000280068F2FBCF69F2E9CF6AF2EACF6BF2E1CF6F
:100038006CF2E2CF6DF2D9CF6EF2DACF6FF2F3CF76
:1000480070F2F4CF71F2F6CF72F2F7CF73F2F8CF05
:1000580074F2F5CF75F25FC076F260C077F261C0D6
:1000680078F262C079F29EB09DA0AED09D909E902D
:100078009D929D84000E0001CE6F000ECD6F000E84
:1000880001017B6F000E7A6FFF0E486FFF0E496FFC
:10009800000E4A6F000E4B6FFA0E4C6FFF0E4D6F3D
:1000A800000E4E6F000E4F6F0001C2690101FF5133
:1000B800D8A4FF0781B203D08C9EFE6907D0FE51F9
:1000C800D8A402D08C9E02D0FE078C8E29EC27F093
:1000D80098EC28F0E8EC1EF0B2C0A8F0B3C0A9F084
:1000E8008B8C8D928A8CC80EE82EFED70001A85101
:1000F80092EC29F0C80EE82EFED78B8C8D828A8C64
:100108000101FF51D8A45FD00A0EFF6F8B8C8B8240
:100118008C868D828A9CC80EE82EFED7CDC099F1B8
:10012800CEC09AF131EC29F0C80EE82EFED70001B6
:10013800B25199EC29F0C80EE82EFED70001B6514D
:1001480099EC29F0C80EE82EFED70101FC5199EC74
:1001580029F0C80EE82EFED76CC199F16DC19AF14D
:1001680031EC29F0C80EE82EFED70101645199EC54
:1001780029F0C80EE82EFED70001B45199EC29F0F9
:10018800C80EE82EFED70001A85199EC29F0C80E38
:10019800E82EFED70001B05199EC29F0C80EE82EE0
:1001A800FED7CFC098F1D0C099F1000E01019B6F26
:1001B8000A0E9A6FE9EC27F00101985199EC29F0A1
:1001C800C80EE82EFED79D809EB29DA2F3D19E92C6
:1001D80001015C515D11D8A4E9D129EC27F0B4C024
:1001E80098F1B5C099F10101000E99BFFF0E9A6F01
:1001F8009B6F010E18EC21F098C1A6F199C1A7F1E7
:100208009AC1A8F19BC1A9F1000E0101AA6F000EC5
:10021800AB6F200EAC6F420EAD6F6AEC22F001019D
:10022800D8B004D0040E976FB00E24D0000EA66F7D
:10023800000EA76F8C0EA86F420EA96FB4C098F17C
:10024800B5C099F1000E99BFFF0E9A6F9B6F010E12
:1002580018EC21F098C1AAF199C1ABF19AC1ACF19F
:100268009BC1ADF16AEC22F00101D8B005D0030EB4
:10027800976F840E966F48D09A0EC76FA90EC86FF5
:10028800D80EC96F440ECA6FAE0EAA6F470EAB6F79
:10029800550EAC6F410EAD6FB4C098F1B5C099F171
:1002A800000E99BFFF0E9A6F9B6F010E18EC21F09C
:1002B80098C1A6F199C1A7F19AC1A8F19BC1A9F16A
:1002C80042EC14F0A6C1BFF1A7C1C0F1A8C1C1F1A9
:1002D800A9C1C2F154EC28F0BFC1C3F1C0C1C4F137
:1002E800C1C1C5F1C2C1C6F193EC17F0C3C1F0F1A9
:1002F800C4C1F1F1C5C1F2F1C6C1F3F19BEC24F020
:10030800F0C196F1F1C197F1000E0101C76FA00E7F
:10031800C86FBE0EC96F450ECA6F96C198F197C1D6
:1003280099F1000E99BFFF0E9A6F9B6F010E18ECA2
:1003380021F098C1BFF199C1C0F19AC1C1F19BC127
:10034800C2F154EC28F0BFC1C3F1C0C1C4F1C1C1AE
:10035800C5F1C2C1C6F193EC17F0C3C1D7F1C4C14E
:10036800D8F1C5C1D9F1C6C1DAF1000E0101DB6FC0
:10037800000EDC6F1E0EDD6F430EDE6F33EC1CF0DB
:10038800D7C13CF2D8C13DF2D9C13EF2DAC13FF241
:10039800000E0101C76FA00EC86FBE0EC96F450ED3
:1003A800CA6F96C198F197C199F1000E99BFFF0ED7
:1003B8009A6F9B6F010E18EC21F098C1BFF199C19B
:1003C800C0F19AC1C1F19BC1C2F154EC28F0BFC180
:1003D800C3F1C0C1C4F1C1C1C5F1C2C1C6F193EC3A
:1003E80017F0C3C17AF2C4C17BF2C5C17CF2C6C1A1
:1003F8007DF24B0E0101AA6F470EAB6F760EAC6F04
:100408003E0EAD6F7AC2BFF17BC2C0F17CC2C1F1B2
:100418007DC2C2F154EC28F0BFC1A6F1C0C1A7F15A
:10042800C1C1A8F1C2C1A9F142EC14F0A6C1C3F13F
:10043800A7C1C4F1A8C1C5F1A9C1C6F196C198F177
:1004480097C199F10101000E99BFFF0E9A6F9B6F3A
:10045800010E18EC21F098C1C7F199C1C8F19AC1F1
:10046800C9F19BC1CAF193EC17F0C3C138F2C4C1FA
:1004780039F2C5C13AF2C6C13BF238C2C7F139C236
:10048800C8F13AC2C9F13BC2CAF13CC2AAF13DC2A5
:10049800ABF13EC2ACF13FC2ADF1B2C098F1B3C00E
:1004A80099F10101000E99BFFF0E9A6F9B6F010E23
:1004B80018EC21F098C1A6F199C1A7F19AC1A8F149
:1004C8009BC1A9F142EC14F0A6C1C3F1A7C1C4F1C4
:1004D800A8C1C5F1A9C1C6F193EC17F0C3C17EF25A
:1004E800C4C17FF2C5C180F2C6C181F27EC2C3F128
:1004F8007FC2C4F180C2C5F181C2C6F1000E0101FC
:10050800C76F000EC86F480EC96FC30ECA6F93EC51
:1005180017F0C3C1C3F0C4C1C4F0C5C1C5F0C6C19A
:10052800C6F0C3C0A6F1C4C0A7F1C5C0A8F1C6C033
:10053800A9F1000E0101AA6F000EAB6F610EAC6F3E
:10054800440EAD6F6AEC22F00101D8B009D0000E5C
:100558000001C36F000EC46F610EC56F440E1ED03C
:10056800000E0101A66F200EA76FCB0EA86F450ED7
:10057800A96FC3C0AAF1C4C0ABF1C5C0ACF1C6C075
:10058800ADF16AEC22F00101D8B009D0000E0001EB
:10059800C36F200EC46FCB0EC56F450EC66F84ECBB
:1005A8000EF0000E01015D6F010E03D0000E5D6FAD
:1005B800000E5C6F79C262F078C261F077C260F0B9
:1005C80076C25FF075C2F5FF74C2F8FF73C2F7FF19
:1005D80072C2F6FF71C2F4FF70C2F3FF6FC2DAFF96
:1005E8006EC2D9FF6DC2E2FF6CC2E1FF6BC2EAFFC7
:1005F8006AC2E9FF69C2FBFF68C2FAFF67C2E0FF8F
:1006080066C2E8FF65C2D8FF5F90100087EF25F04B
:10061800FACF7AF0FBCF7BF0E9CF7CF0EACF7DF020
:10062800E1CF7EF0E2CF7FF0D9CF80F0DACF81F052
:10063800F3CF82F0F4CF83F0F6CF84F0F7CF85F0D4
:10064800F8CF86F0F5CF87F05FC088F060C089F0FA
:1006580061C08AF062C08BF0F2B2F2A868D0F2985A
:10066800F2920001C229D8B40BD09D909D82FAEC79
:1006780028F001C04CF102C04DF101014E6B4F6BE7
:1006880001014C51485D4D5149594E514A594B5100
:10069800800A0001786F01014F51800A00017859E2
:1006A800D8B01ED0320EC2651BD08A8E000E010152
:1006B8007B6F010E7A6F000E0001C26F8C8E000EE8
:1006C8000101856F000E846F84C186F185C187F1B1
:1006D80086C188F187C189F188C18AF189C18BF106
:1006E800D89001014C354C6F4D354D6F4E354E6FDE
:1006F8004F354F6F4CC148F14DC149F14EC14AF1D8
:100708004FC14BF1BEEC27F0000E026E000E016ED9
:10071800BCEC29F09E909D80020E0001C219D8B44D
:100728008A9E000E0101876F010E866FF288A1B2C2
:10073800A0A253EF0EF0A092A1929D8401017851DE
:100748007911D8B4E5EF07F05CEC27F0F0EC25F070
:10075800ADEC28F07AEC26F00001CEBF05D0DC0E17
:10076800CD5D050ECE59D8A004EC20F001015851FA
:100778005911D8B4C3D08B9C8D828A8C8B828C867D
:10078800C80EE82EFED701017651A0EC29F0C80E5C
:10079800E82EFED701017451A0EC29F0C80EE82E0E
:1007A800FED701017251A0EC29F0C80EE82EFED741
:1007B80070C102F071C103F047EC29F0C80EE82EB1
:1007C800FED701016E51A0EC29F0C80EE82EFED725
:1007D8006CC102F06DC103F047EC29F0C80EE82E99
:1007E800FED70001C151A0EC29F0C80EE82EFED7B3
:1007F80001016851A0EC29F0C80EE82EFED70001CF
:10080800B451A0EC29F0C80EE82EFED70001B05173
:10081800A0EC29F0C80EE82EFED78B8C8B828C8634
:100828008D828A9CC80EE82EFED7CDC002F0CEC0BD
:1008380003F051EC29F0C80EE82EFED70001B251A2
:10084800A6EC29F0C80EE82EFED70001B651A6EC9A
:1008580029F0C80EE82EFED70101FC51A6EC29F0BC
:10086800C80EE82EFED75EC102F05FC103F051EC5E
:1008780029F0C80EE82EFED701016451A6EC29F034
:10088800C80EE82EFED70001B451A6EC29F0C80E18
:10089800E82EFED70001A851A6EC29F0C80EE82ED4
:1008A800FED70001B051A6EC29F0C80EE82EFED7FD
:1008B800CFC001F0D0C002F0000E046E0A0E036E25
:1008C80013EC28F00150A6EC29F0C80EE82EFED74C
:1008D8008A8C8B8C8D928A8CC80EE82EFED70001EC
:1008E800A851A0EC29F0C80EE82EFED78B8C8D827B
:1008F8008A8C000E0101596F000E586F000E366E7B
:10090800400E376E9C0E386E450E396ECBC00FF018
:10091800CCC010F0000E10BEFF0E116E126E010E4C
:10092800C2EC21F00FC03AF010C03BF011C03CF00F
:1009380012C03DF08EEC1DF036C044F237C045F2CF
:1009480038C046F239C047F244C21DF045C21EF015
:1009580046C21FF047C220F0000E216E000E226E24
:100968007A0E236E440E246EEBEC15F01DC018F1C0
:100978001EC019F11FC01AF120C01BF118C164F084
:1009880019C165F01AC166F01BC167F018EC25F0B3
:1009980064C0CDF065C0CEF00001CEBF08D0650EB2
:1009A800CD5D190ECE59D8A002D0410E1ED0000E32
:1009B8003A6E000E3B6EC80E3C6E420E3D6E18C17C
:1009C80036F019C137F01AC138F01BC139F08EEC76
:1009D8001DF036C064F037C065F038C066F039C025
:1009E80067F018EC25F000016451C16FCEBF91D2B9
:1009F800590ECD5D020ECE59D8A08BD2210E216E94
:100A08006C0E226EAC0E236E440E246EC7C01DF011
:100A1800C8C01EF0C9C01FF0CAC020F0EBEC15F02A
:100A28001DC036F01EC037F01FC038F020C039F0A6
:100A38003CC13AF03DC13BF03EC13CF03FC13DF006
:100A48008EEC1DF036C038F137C039F138C03AF1B4
:100A580039C03BF138C136F039C137F03AC138F006
:100A68003BC139F0000E046E640E036ECFC001F076
:100A7800D0C002F013EC28F001C00FF002C010F053
:100A8800116A126A000EC2EC21F00FC03AF010C0D1
:100A98003BF011C03CF012C03DF08EEC1DF036C0AA
:100AA80034F137C035F138C036F139C037F134C1C7
:100AB8001DF035C11EF036C11FF037C120F0000E01
:100AC800216E000E226EC80E236E430E246EEBECD0
:100AD80015F01DC01CF11EC01DF11FC01EF120C065
:100AE8001FF1000E01012C6F000E2D6F800E2E6F6E
:100AF8003F0E2F6FB4C00FF0B5C010F0000E10BE3F
:100B0800FF0E116E126E010EC2EC21F00FC01DF027
:100B180010C01EF011C01FF012C020F0000E216E90
:100B2800000E226E8C0E236E420E246E8BEC23F088
:100B3800D8B05DD0290E536E5C0E546E8F0E556E74
:100B48003E0E566E6F0E216E120E226E830E236EAF
:100B58003B0E246EB4C00FF0B5C010F0000E10BEEE
:100B6800FF0E116E126E010EC2EC21F00FC01DF0C7
:100B780010C01EF011C01FF012C020F0EBEC15F0F1
:100B88001DC036F01EC037F01FC038F020C039F045
:100B98006CEC28F036C04FF037C050F038C051F038
:100BA80039C052F032EC19F04FC094F050C095F0B3
:100BB80051C096F052C097F02CC14FF02DC150F0A3
:100BC8002EC151F02FC152F094C053F095C054F08B
:100BD80096C055F097C056F032EC19F04FC02CF182
:100BE80050C02DF151C02EF152C02FF109D0000E86
:100BF80001012C6F000E2D6F800E2E6F3F0E2F6F90
:100C0800330E1D6E330E1E6EB30E1F6E3F0E206E1A
:100C18002CC121F02DC122F02EC123F02FC124F0C8
:100C28008BEC23F0D8B007D0330E01012C6F330EB4
:100C38002D6FB30E1AD02CC11DF02DC11EF02EC180
:100C48001FF02FC120F0000E216E000E226E400E04
:100C5800236E3F0E246E8BEC23F0D8B009D0000E23
:100C680001012C6F000E2D6F400E2E6F3F0E2F6F5F
:100C78001CC11DF01DC11EF01EC11FF01FC120F0B8
:100C88002CC121F02DC122F02EC123F02FC124F058
:100C9800EBEC15F01DC0A4F01EC0A5F01FC0A6F017
:100CA80020C0A7F0A4C01DF0A5C01EF0A6C01FF06C
:100CB800A7C020F0000E216E000E226E400E236E9B
:100CC8003F0E246EEBEC15F01DC0A4F01EC0A5F07D
:100CD8001FC0A6F020C0A7F0000E1D6E000E1E6EED
:100CE800FA0E1F6E440E206EC3C021F0C4C022F05D
:100CF800C5C023F0C6C024F08BEC23F0D8B046D092
:100D0800000E3A6E400E3B6E1C0E3C6E460E3D6E5B
:100D1800C3C036F0C4C037F0C5C038F0C6C039F01B
:100D28008EEC1DF036C04FF037C050F038C051F08F
:100D380039C052F0660E536E660E546E860E556EAE
:100D48003F0E566E32EC19F04FC028F150C029F111
:100D580051C02AF152C02BF1A4C01DF0A5C01EF04D
:100D6800A6C01FF0A7C020F028C121F029C122F099
:100D78002AC123F02BC124F0EBEC15F01DC0A4F020
:100D88001EC0A5F01FC0A6F020C0A7F0A4C01DF08B
:100D9800A5C01EF0A6C01FF0A7C020F0000E216E4F
:100DA800C00E226E280E236E450E246E8BEC23F0A7
:100DB800D8B009D0000E0001A46FC00EA56F280E90
:100DC800A66F450E1CD0000E1D6E600E1E6E6A0EBC
:100DD8001F6E460E206EA4C021F0A5C022F0A6C04A
:100DE80023F0A7C024F08BEC23F0D8B009D0000E74
:100DF8000001A46F600EA56F6A0EA66F460EA76F5E
:100E0800A4C044F1A5C045F1A6C046F1A7C047F16A
:100E1800CBC00FF0CCC010F0000E10BEFF0E116E4C
:100E2800126E010EC2EC21F00FC01DF010C01EF0B2
:100E380011C01FF012C020F0660E216E660E226EE1
:100E4800260E236E410E246EEBEC15F01DC014F136
:100E58001EC015F11FC016F120C017F114C11DF0F6
:100E680015C11EF016C11FF017C120F0A4C021F053
:100E7800A5C022F0A6C023F0A7C024F08BEC23F075
:100E8800D8B03BD014C1A4F015C1A5F016C1A6F086
:100E980017C1A7F0A4C040F1A5C041F1A6C042F116
:100EA800A7C043F144C153F045C154F046C155F0C1
:100EB80047C156F040C136F041C137F042C138F061
:100EC80043C139F06CEC28F036C04FF037C050F011
:100ED80038C051F039C052F032EC19F04FC064F00C
:100EE80050C065F051C066F052C067F018EC25F0AC
:100EF80064C06AF165C06BF105D0000E01016B6F2B
:100F0800000E6A6F0F0E0001AF6FA00EAE6F45EFB7
:100F18000EF0000EA46F000EA56F7A0EA66F450E98
:100F2800A76FA4C064F0A5C065F0A6C066F0A7C00E
:100F380067F018EC25F064C05EF165C05FF10F0E34
:100F48000001AF6FA00EAE6FA4C01DF0A5C01EF0CB
:100F5800A6C01FF0A7C020F0000E216E000E226E62
:100F6800FA0E236E440E246E8BEC23F0D8B009D011
:100F7800000E0001A46F000EA56FFA0EA66F440EB6
:100F88001DD0000E1D6EF00E1E6E070E1F6E460E53
:100F9800206EA4C021F0A5C022F0A6C023F0A7C0EF
:100FA80024F08BEC23F0D8B045EF0EF0000E0001D2
:100FB800A46FF00EA56F070EA66F460EA76F45EF3C
:100FC8000EF00001CEBF06D0200ECD5D030ECE5927
:100FD800D8B004D0000EA96F280EA86FCEBF0AD0D3
:100FE800A10ECD5D0F0ECE59D8A004D00F0EAF6F55
:100FF800A00EAE6F0A0E216ED70E226E230E236E40
:101008003C0E246E18C11DF019C11EF01AC11FF044
:101018001BC120F0EBEC15F01DC064F01EC065F09C
:101028001FC066F020C067F018EC25F0000164517D
:10103800C16FC7C01DF0C8C01EF0C9C01FF0CAC02C
:1010480020F0000E216E000E226EF00E236E410E6F
:10105800246E8BEC23F0D8B002D0000E15D0000E11
:101068001D6E000E1E6EF00E1F6E420E206EC7C063
:1010780021F0C8C022F0C9C023F0CAC024F08BEC0C
:1010880023F0D8B003D0090E000130D0000E536E03
:10109800000E546E400E556EC00E566E000E3A6E1F
:1010A800000E3B6E200E3C6E410E3D6EC7C036F002
:1010B800C8C037F0C9C038F0CAC039F08EEC1DF08E
:1010C80036C04FF037C050F038C051F039C052F038
:1010D80032EC19F04FC064F050C065F051C066F0B2
:1010E80052C067F018EC25F000016451C06F000E83
:1010F8003A6E000E3B6EA00E3C6E400E3D6ECBC0AD
:101108000FF0CCC010F0000E10BEFF0E116E126E64
:10111800010EC2EC21F00FC036F010C037F011C03C
:1011280038F012C039F08EEC1DF036C064F037C0CC
:1011380065F038C066F039C067F018EC25F064C077
:10114800CBF065C0CCF0CBC00FF0CCC010F0000ED7
:1011580010BEFF0E116E126E010EC2EC21F00FC010
:101168003AF010C03BF011C03CF012C03DF0A4C0F2
:1011780036F0A5C037F0A6C038F0A7C039F08EEC1D
:101188001DF036C064F037C065F038C066F039C06D
:1011980067F018EC25F064C0AAF065C0ABF0000158
:1011A800C151040DDF0EF324F66EFE0EF420F76E27
:1011B8000900F5CF53F00900F5CF54F00900F5CF39
:1011C80055F00A00F5CF56F0AAC00FF0ABC010F0EA
:1011D800000E10BEFF0E116E126E010EC2EC21F051
:1011E8000FC036F010C037F011C038F012C039F017
:1011F8006CEC28F036C04FF037C050F038C051F0D2
:1012080039C052F032EC19F04FC094F050C095F04C
:1012180051C096F052C097F094C04FF095C050F06E
:1012280096C051F097C052F0000E536E000E546EE7
:10123800800E556EBF0E566E32EC19F04FC0A0F0FE
:1012480050C0A1F051C0A2F052C0A3F0A0C01DF040
:10125800A1C01EF0A2C01FF0A3C020F0000E216E96
:10126800000E226E800E236E3F0E246E8BEC23F050
:10127800D8B01AD0A0C04FF0A1C050F0A2C051F011
:10128800A3C052F0000E536E000E546E700E556ED1
:10129800420E566E32EC19F04FC0A0F050C0A1F0CB
:1012A80051C0A2F052C0A3F0A0C064F0A1C065F084
:1012B800A2C066F0A3C067F018EC25F064C0B8F0CF
:1012C80065C0B9F03B0E0001B819B911D8B408D0FF
:1012D800B9BF0AD0B95104E13C0EB85DD8A004D01A
:1012E800000EB96F3A0E0DD01D0EB819B911D8B449
:1012F80005D01E0EB819B911D8A404D0000EB96FC4
:101308001C0EB86FA0C053F0A1C054F0A2C055F095
:10131800A3C056F0B8C00FF0B9C010F0000E10BE50
:10132800FF0E116E126E010EC2EC21F00FC036F0E6
:1013380010C037F011C038F012C039F06CEC28F04A
:1013480036C04FF037C050F038C051F039C052F0B5
:1013580032EC19F04FC01DF050C01EF051C01FF004
:1013680052C020F0CBC00FF0CCC010F0000E10BE61
:10137800FF0E116E126E010EC2EC21F00FC021F0AB
:1013880010C022F011C023F012C024F0EBEC15F0CD
:101398001DC020F11EC021F11FC022F120C023F181
:1013A800000E1D6E000E1E6E000E1F6E000E206ECB
:1013B8006AC10FF06BC110F0000E10BEFF0E116E67
:1013C800126E010EC2EC21F00FC021F010C022F005
:1013D80011C023F012C024F08BEC23F0D8B090D0C9
:1013E8000001CEBF8DD0290ECD5D0A0ECE59D8A0F2
:1013F80087D06AC107F06BC108F0CBC009F0CCC038
:101408000AF038EC26F007C060F108C061F160C14D
:101418000FF061C110F0000E10BEFF0E116E126EBB
:10142800010EC2EC21F00FC036F010C037F011C029
:1014380038F012C039F06CEC28F036C04FF037C0E5
:1014480050F038C051F039C052F0A0C053F0A1C0DC
:1014580054F0A2C055F0A3C056F032EC19F04FC0BA
:101468000CF150C00DF151C00EF152C00FF10CC17A
:101478001DF00DC11EF00EC11FF00FC120F0000EAF
:10148800216E000E226E800E236E3F0E246E8BECB2
:1014980023F0D8B009D0000E01010C6F000E0D6FBB
:1014A800800E0E6F3F0E0F6F000E1D6E000E1E6E2B
:1014B800E00E1F6E410E206E0CC121F00DC122F00E
:1014C8000EC123F00FC124F08BEC23F0D8B009D063
:1014D800000E01010C6F000E0D6FE00E0E6F410E35
:1014E8000F6F0CC164F00DC165F00EC166F00FC13D
:1014F80067F018EC25F064C068F165C069F105D0A3
:10150800000E0101696F000E686FAEC001F0AFC038
:1015180002F0CBC003F0CCC004F013EC28F001C0FB
:10152800AAF002C0ABF0AAC00FF0ABC010F0000EDA
:1015380010BEFF0E116E126E010EC2EC21F00FC02C
:1015480036F010C037F011C038F012C039F06CEC2A
:1015580028F036C04FF037C050F038C051F039C0CD
:1015680052F00001C151280D8F0E786FF40E796F7B
:10157800F3507827F4507923C051040DF35078279D
:10158800F450792378C0F6FF79C0F7FF0900F5CF4A
:1015980053F00900F5CF54F00900F5CF55F00A00D3
:1015A800F5CF56F032EC19F04FC010F150C011F1E0
:1015B80051C012F152C013F1AAC00FF0ABC010F025
:1015C800000E10BEFF0E116E126E010EC2EC21F05D
:1015D8000FC036F010C037F011C038F012C039F023
:1015E8006CEC28F036C04FF037C050F038C051F0DE
:1015F80039C052F00001C151280D3F0E786FEA0E34
:10160800796FF3507827F4507923C051040DF350C3
:101618007827F450792378C0F6FF79C0F7FF0900DE
:10162800F5CF53F00900F5CF54F00900F5CF55F088
:101638000A00F5CF56F032EC19F04FC048F250C00E
:1016480049F251C04AF252C04BF20001BE51D8A42F
:1016580003D0BD51D8B47ED048C221F049C222F08F
:101668004AC223F04BC224F0BE510F6E106A116AB1
:10167800126A000EC2EC21F00FC01DF010C01EF05F
:1016880011C01FF012C020F0EBEC15F01DC04FF098
:101698001EC050F01FC051F020C052F010C121F000
:1016A80011C122F012C123F013C124F00001BD5171
:1016B8000F6E106A116A126A000EC2EC21F00FC098
:1016C8001DF010C01EF011C01FF012C020F0EBEC8E
:1016D80015F01DC053F01EC054F01FC055F020C0B7
:1016E80056F032EC19F04FC09CF050C09DF051C03C
:1016F8009EF052C09FF09CC036F09DC037F09EC04F
:1017080038F09FC039F00001BD51BEC078F0796B48
:101718007827000E792378C00FF079C010F0000EFA
:1017280010BEFF0E116E126E010EC2EC21F00FC03A
:101738003AF010C03BF011C03CF012C03DF08EEC06
:101748001DF036C09CF037C09DF038C09EF039C0FF
:101758009FF049D0AAC00FF0ABC010F0000E10BE29
:10176800FF0E116E126E010EC2EC21F00FC036F0A2
:1017780010C037F011C038F012C039F06CEC28F006
:1017880036C04FF037C050F038C051F039C052F071
:101798000001C151280D8F0E786FF40E796FF35048
:1017A8007827F4507923C051040DF3507827F4506A
:1017B800792378C0F6FF79C0F7FF0900F5CF53F019
:1017C8000900F5CF54F00900F5CF55F00A00F5CF20
:1017D80056F032EC19F04FC09CF050C09DF051C04B
:1017E8009EF052C09FF00001CEBF2AD0590ECD5DA9
:1017F800020ECE59D8A024D0D1EC1AF064C08CF0D7
:1018080065C08DF066C08EF067C08FF09CC04FF049
:101818009DC050F09EC051F09FC052F08CC053F054
:101828008DC054F08EC055F08FC056F032EC19F0D0
:101838004FC09CF050C09DF051C09EF052C09FF028
:101848009CC01DF09DC01EF09EC01FF09FC020F0E0
:10185800000E216E000E226E800E236E3F0E246E47
:101868008BEC23F0D8B01AD09CC04FF09DC050F03C
:101878009EC051F09FC052F0000E536E000E546E81
:10188800700E556E420E566E32EC19F04FC09CF039
:1018980050C09DF051C09EF052C09FF09CC064F0B3
:1018A8009DC065F09EC066F09FC067F018EC25F0FB
:1018B80064C0ACF065C0ADF03B0E0001AC19AD11D1
:1018C800D8B408D0ADBF0AD0AD5104E13C0EAC5D30
:1018D800D8A004D0000EAD6F3A0E0DD01D0EAC1975
:1018E800AD11D8B405D01E0EAC19AD11D8A404D0D2
:1018F800000EAD6F1C0EAC6F9CC053F09DC054F031
:101908009EC055F09FC056F0ACC00FF0ADC010F0AF
:10191800000E10BEFF0E116E126E010EC2EC21F009
:101928000FC036F010C037F011C038F012C039F0CF
:101938006CEC28F036C04FF037C050F038C051F08A
:1019480039C052F032EC19F04FC01DF050C01EF0F3
:1019580051C01FF052C020F0CBC00FF0CCC010F027
:10196800000E10BEFF0E116E126E010EC2EC21F0B9
:101978000FC021F010C022F011C023F012C024F0D3
:10198800EBEC15F01DC024F11EC025F11FC026F197
:1019980020C027F120C11DF021C11EF022C11FF077
:1019A80023C120F0000E216E000E226E200E236E41
:1019B800410E246E8BEC23F0D8B009D0000E010143
:1019C800206F000E216F200E226F410E236F24C15D
:1019D8001DF025C11EF026C11FF027C120F0000E02
:1019E800216E000E226E200E236E410E246E8BECAB
:1019F80023F0D8B009D0000E0101246F000E256F26
:101A0800200E266F410E276F98C01DF099C01EF05A
:101A18009AC01FF09BC020F0000E216E000E226EAF
:101A28007A0E236EC40E246E8BEC23F0D8B009D046
:101A38000001CEBF06D0150ECD5D050ECE59D8B02B
:101A480009D00001CEBF1CD0A30ECD5D170ECE5914
:101A5800D8A016D0000EB96FC80EB86F000E0101DD
:101A6800206F000E216F000E226F000E236F000EF4
:101A78000001A46F000EA56F000EA66F000EA76FE1
:101A8800ACC076F1ADC077F1B8C072F1B9C073F1EE
:101A980024C136F025C137F026C138F027C139F006
:101AA800000E3A6E000E3B6E500E3C6E420E3D6EBE
:101AB8008EEC1DF036C024F137C025F138C026F170
:101AC80039C027F124C11DF025C11EF026C11FF021
:101AD80027C120F0000E216E000E226E800E236EAC
:101AE8003F0E246E8BEC23F0D8B009D0000E010114
:101AF800246F000E256F800E266F3F0E276F20C1C2
:101B08001DF021C11EF022C11FF023C120F0000EDC
:101B1800216E000E226E800E236E3F0E246E8BEC1B
:101B280023F0D8B009D0000E0101206F000E216FFC
:101B3800800E226F3F0E236F24C164F025C165F02B
:101B480026C166F027C167F018EC25F0D89000018F
:101B580064350101746F000165350101756F20C19D
:101B680064F021C165F022C166F023C167F018EC6A
:101B780025F064C070F165C071F1AEC001F0AFC06E
:101B880002F0000E046E340E036E13EC28F001C050
:101B9800AEF002C0AFF0AEC06EF1AFC06FF1A4C03E
:101BA80064F0A5C065F0A6C066F0A7C067F018ECA1
:101BB80025F064C05EF165C05FF1000E3A6E000E5C
:101BC8003B6EA00E3C6E420E3D6E000E216E000E66
:101BD800226EC80E236E420E246EA4C01DF0A5C04E
:101BE8001EF0A6C01FF0A7C020F0EBEC15F01DC03A
:101BF80036F01EC037F01FC038F020C039F08EEC28
:101C08001DF036C090F037C091F038C092F039C05E
:101C180093F090C01DF091C01EF092C01FF093C0C9
:101C280020F030C121F031C122F032C123F033C19C
:101C380024F0EBEC15F01DC0A4F01EC0A5F01FC0E9
:101C4800A6F020C0A7F0A4C064F0A5C065F0A6C0A7
:101C580066F0A7C067F018EC25F064C06CF165C0A9
:101C68006DF181B205D0000E01016D6F000E6C6F31
:101C7800000E0101856F010E846F000E596F010E71
:101C8800586F000E0101896F010E886F7851791124
:101C9800D8A402D0010E01D0000E786F796B9EB4E3
:101CA8009DA408D09D949E94000E0F01506F000EC5
:101CB8004F6F9D848BC062F08AC061F089C060F06C
:101CC80088C05FF087C0F5FF86C0F8FF85C0F7FFC2
:101CD80084C0F6FF83C0F4FF82C0F3FF81C0DAFF3F
:101CE80080C0D9FF7FC0E2FF7EC0E1FF7DC0EAFF70
:101CF8007CC0E9FF7BC0FBFF7AC0FAFF5F9211004E
:101D0800CDC098F1CEC099F10101000E99BFFF0E28
:101D18009A6F9B6F010E18EC21F098C1BFF199C121
:101D2800C0F19AC1C1F19BC1C2F154EC28F0BFC106
:101D3800C3F1C0C1C4F1C1C1C5F1C2C1C6F1C3C0BC
:101D4800C7F1C4C0C8F1C5C0C9F1C6C0CAF193EC97
:101D580017F0C3C198F0C4C199F0C5C19AF0C6C1C3
:101D68009BF098C0A6F199C0A7F19AC0A8F19BC0B2
:101D7800A9F1000E0101AA6F000EAB6F8C0EAC6FBB
:101D8800420EAD6F6AEC22F00101D8B015D0000EFA
:101D9800A66F000EA76F8C0EA86FC20EA96F98C011
:101DA800AAF199C0ABF19AC0ACF19BC0ADF16AEC55
:101DB80022F00101D8A0120098C0A6F199C0A7F19D
:101DC8009AC0A8F19BC0A9F1000EAA6F000EAB6FD4
:101DD800FA0EAC6F430EAD6F6AEC22F00101D8B079
:101DE80030D0000EA66F000EA76FFA0EA86FC30EB4
:101DF800A96F98C0AAF199C0ABF19AC0ACF19BC089
:101E0800ADF16AEC22F00101D8B01BD008C1C3F1D2
:101E180009C1C4F10AC1C5F10BC1C6F198C0C7F127
:101E280099C0C8F19AC0C9F19BC0CAF193EC17F0E8
:101E3800C3C108F1C4C109F1C5C10AF1C6C10BF19A
:101E480009D0000E0101086F000E096F000E0A6F1D
:101E5800000E0B6F000E0101A66F500EA76F430E08
:101E6800A86F480EA96F08C1AAF109C1ABF10AC150
:101E7800ACF10BC1ADF16AEC22F00101D8B008D089
:101E8800000E086F500E096F430E0A6F480E1CD0E3
:101E980008C1A6F109C1A7F10AC1A8F10BC1A9F1AE
:101EA800000EAA6F500EAB6F430EAC6FC80EAD6F2D
:101EB8006AEC22F00101D8B008D0000E086F500E6D
:101EC800096F430E0A6FC80E0B6F000EA66F000E47
:101ED800A76F000EA86F000EA96F98C0AAF199C04D
:101EE800ABF19AC0ACF19BC0ADF16AEC22F00101F4
:101EF800D8B0C7D00001CEBF06D0A40ECD5D060E67
:101F0800CE59D8B027D00A0E0101AA6FD70EAB6FF1
:101F1800A30EAC6F3D0EAD6F98C0A6F199C0A7F1A6
:101F28009AC0A8F19BC0A9F142EC14F0A6C1D7F160
:101F3800A7C1D8F1A8C1D9F1A9C1DAF1000E0101F0
:101F4800DB6F400EDC6F9C0EDD6F450EDE6F33ECF1
:101F58001CF08ED00001CEBF06D0B80ECD5D0B0EA2
:101F6800CE59D8B05FD0730E0101C76F680EC86F25
:101F7800110EC96FBE0ECA6F9C0EAA6F500EAB6FC2
:101F8800080EAC6F390EAD6FCDC098F1CEC099F187
:101F9800000E99BFFF0E9A6F9B6F010E18EC21F08F
:101FA80098C1A6F199C1A7F19AC1A8F19BC1A9F15D
:101FB80042EC14F0A6C1C3F1A7C1C4F1A8C1C5F190
:101FC800A9C1C6F193EC17F0C3C15DF2C4C15EF2BA
:101FD800C5C15FF2C6C160F298C0AAF199C0ABF161
:101FE8009AC0ACF19BC0ADF15DC2A6F15EC2A7F18B
:101FF8005FC2A8F160C2A9F142EC14F0A6C1D7F102
:10200800A7C1D8F1A8C1D9F1A9C1DAF1000E01011F
:10201800DB6F400EDC6F9C0EDD6F450EDE6F33EC20
:102028001CF026D0000E0101AA6F000EAB6F800EC7
:10203800AC6F3E0EAD6F98C0A6F199C0A7F19AC0DB
:10204800A8F19BC0A9F142EC14F0A6C1D7F1A7C131
:10205800D8F1A8C1D9F1A9C1DAF1000E0101DB6FED
:10206800400EDC6F9C0EDD6F450EDE6F33EC1CF00E
:10207800D7C140F2D8C141F2D9C142F2DAC143F224
:1020880009D0000E0201406F000E416F000E426F32
:10209800000E436F98C0AAF199C0ABF19AC0ACF199
:1020A8009BC0ADF140C2A6F141C2A7F142C2A8F15E
:1020B80043C2A9F142EC14F0A6C1C3F1A7C1C4F10F
:1020C800A8C1C5F1A9C1C6F108C1AAF109C1ABF1FE
:1020D8000AC1ACF10BC1ADF1F70EF66EFF0EF76E4B
:1020E8000900F5CFA6F10900F5CFA7F10900F5CF52
:1020F800A8F10A00F5CFA9F142EC14F0A6C1C7F186
:10210800A7C1C8F1A8C1C9F1A9C1CAF193EC17F0D8
:10211800C3C128F2C4C129F2C5C12AF2C6C12BF233
:10212800A60E0101AA6F9B0EAB6FC40EAC6F3B0EDF
:10213800AD6FC3C0A6F1C4C0A7F1C5C0A8F1C6C0A1
:10214800A9F142EC14F0A6C1C3F1A7C1C4F1A8C11A
:10215800C5F1A9C1C6F15C0E0101C76F8F0EC86F2A
:10216800F00EC96F410ECA6F93EC17F0C3C134F279
:10217800C4C135F2C5C136F2C6C137F234C2C3F1A3
:1021880035C2C4F136C2C5F137C2C6F128C2C7F19B
:1021980029C2C8F12AC2C9F12BC2CAF193EC17F0BF
:1021A800C3C100F1C4C101F1C5C102F1C6C103F147
:1021B8000001CEBF06D0A40ECD5D060ECE59D8B014
:1021C80009D0000E0101046F000E056FC80E066FDE
:1021D800420E83D0000E0101DB6F800EDC6FA20E71
:1021E800DD6F440EDE6F000EAA6F000EAB6F080E97
:1021F800AC6F430EAD6F000EC76F800EC86FD40E64
:10220800C96FC40ECA6FCDC098F1CEC099F1000E47
:1022180099BFFF0E9A6F9B6F010E18EC21F098C1C1
:10222800C3F199C1C4F19AC1C5F19BC1C6F193EC40
:1022380017F0C3C1A6F1C4C1A7F1C5C1A8F1C6C1B1
:10224800A9F142EC14F0A6C1D7F1A7C1D8F1A8C1F1
:10225800D9F1A9C1DAF133EC1CF0D7C161F2D8C1C8
:1022680062F2D9C163F2DAC164F261C2C3F162C237
:10227800C4F163C2C5F164C2C6F1000E0101C76FA3
:10228800000EC86FC80EC96F420ECA6F93EC17F0E4
:10229800C3C104F1C4C105F1C5C106F1C6C107F146
:1022A800000E0101A66F000EA76F6C0EA86F430EFB
:1022B800A96F04C1AAF105C1ABF106C1ACF107C110
:1022C800ADF16AEC22F00101D8B008D0000E046F1D
:1022D800000E056F6C0E066F430E076F00C1A6F166
:1022E80001C1A7F102C1A8F103C1A9F1000EAA6FAB
:1022F800000EAB6F0C0EAC6F420EAD6F6AEC22F0A5
:102308000101D8B00CD00001CEBF09D0DD0ECD5DE3
:10231800050ECE59D8A003D0000E010117D000C178
:10232800A6F101C1A7F102C1A8F103C1A9F1000EEC
:102338000101AA6F000EAB6F0C0EAC6F420EAD6FB1
:102348006AEC22F00101D8B009D0000E006F000E2F
:10235800016F0C0E026F420E036F1DD004C1A6F16F
:1023680005C1A7F106C1A8F107C1A9F100C1AAF1E9
:1023780001C1ABF102C1ACF103C1ADF16AEC22F0CD
:102388000101D8B008D004C100F105C101F106C1AE
:1023980002F107C103F100C1F0F101C1F1F102C17D
:1023A800F2F103C1F3F19BEC24F00101F051FA6F53
:1023B800FB6BF8C15AF2F9C15BF2D89002015A37A7
:1023C8005B370101FA5102015A5D5B51800A5C6F6B
:1023D8000101FB51800A02015C59D8A009D0010112
:1023E800FBBF0FD0FB5104E1640EFA5DD8A009D001
:1023F800F8C1FAF1F9C1FBF1F8C1A8F0F9C1A9F0E7
:1024080013D000C1F0F101C1F1F102C1F2F103C131
:10241800F3F19BEC24F00101F0510001A86FA96BC6
:10242800A8C0F8F1A9C0F9F1000E0101916F1200DE
:10243800A4704D40F6284C40713D4A40C3F54840D1
:102448003D0A4740B81E45400AD7434085EB414006
:10245800D7A3404052B83E40A4703D40F6283C40C7
:10246800713D3A40C3F538403D0A37408FC2354088
:10247800E17A34405C8F3240AE4731400000304052
:1024880052B82E40CDCC2C401F852B40713D2A40A0
:10249800C3F5284014AE27408FC22540E17A244076
:1024A8003333234085EB2140D7A32040295C1F40CC
:1024B8007B141E40CDCC1C401F851B40713D1A402B
:1024C800C3F5184014AE174066661640B81E15408E
:1024D8000AD713405C8F1240AE47114000001040ED
:1024E800295C0F407B140E40CDCC0C401F850B405F
:1024F800713D0A409A990940EC5108403D0A07404D
:102508008FC20540B81E05400AD703405C8F0240C1
:1025180085EB0140D7A3004052B8FE3FA470FD3FB1
:1025280048E1FA3FEC51F83F3D0AF73FE17AF43FC2
:102538003333F33FD7A3F03F7B14EE3FCDCCEC3FD2
:10254800713DEA3FC3F5E83F6666E63FB81EE53FE2
:102558005C8FE23FAE47E13F0000E03FA470DD3F03
:10256800F628DC3F9A99D93FEC51D83F3D0AD73F2E
:10257800E17AD43F3333D33FD7A3D03F295CCF3F51
:102588007B14CE3F1F85CB3F713DCA3FC3F5C83F83
:1025980014AEC73FB81EC53F0AD7C33F5C8FC23FC2
:1025A8000000C03F52B8BE3FA470BD3FF628BC3FF4
:1025B80048E1BA3FEC51B83F3D0AB73F8FC2B53F3B
:1025C800E17AB43F3333B33F85EBB13F295CAF3F8A
:1025D8007B14AE3FCDCCAC3F1F85AB3F713DAA3FCE
:1025E800C3F5A83F14AEA73F6666A63FB81EA53F31
:1025F8000AD7A33F5C8FA23F0000A03F52B89E3F7E
:10260800A4709D3FF6289C3F48E19A3F9A99993FCC
:10261800EC51983F3D0A973F8FC2953F8FC2953F37
:10262800E17A943F3333933F85EB913FD7A3903FB3
:10263800295C8F3F7B148E3FCDCC8C3F1F858B3F11
:10264800713D8A3FC3F5883F14AE873F14AE873F7C
:102658006666863FB81E853F0AD7833F5C8F823FF8
:10266800AE47813F0000803F0000803FA4707D3F5F
:1026780048E17A3FEC51783F8FC2753FBB01AE010C
:10268800A601A0019C0198019501920190018E017B
:102698008C018A01890187018601850183018201F4
:1026A800810180017F017E017D017C017B017A012E
:1026B8007A01790178017701770176017501750151
:1026C800740173017301720171017101700170016C
:1026D8006F016F016E016E016D016D016C016C017E
:1026E8006B016B016A016A0169016901690168018D
:1026F8006801670167016601660166016501650198
:1027080064016401640163016301630162016201A0
:102718006101610161016001600160015F015F01A8
:102728005F015E015E015E015D015D015D015C01AD
:102738005C015C015B015B015B015A015A015A01B2
:1027480059015901590158015801580157015701B8
:1027580057015701560156015601550155015501BA
:1027680054015401540154015301530153015201BE
:1027780052015201510151015101500150015001C2
:1027880050014F014F014F014E014E014E014D01C5
:102798004D014D014D014C014C014C014B014B01C8
:1027A8004B014A014A014A014A01490149014901CB
:1027B80048014801480147014701470146014601D0
:1027C80046014501450145014401440144014301D5
:1027D80043014301420142014201410141014101DA
:1027E8004001400140013F013F013E013E013E01E1
:1027F8003D013D013D013C013C013B013B013B01E9
:102808003A013A01390139013801380138013701F3
:102818003701360136013501350134013401330100
:1028280033013201320131013101300130012F0110
:102838002E012E012D012C012C012B012A012A0128
:102848002901280127012701260125012401230147
:102858002201210120011F011E011C011B011A0177
:10286800180117011501130111010F010C010901CC
:1028780005010101FB00F300E60000000101A95178
:10288800800BB26FA951A925B86FA8BFB881B851FC
:10289800D8B40DD0B829D8A408D0000EA66F000E61
:1028A800A76F000EA86F000EA96FA88F08D0000EA2
:1028B800A66F000EA76F000EA86F000EA96FAD518E
:1028C800800BB21BAD51AD25B36FACBFB381B35113
:1028D800D8B40DD0B329D8A408D0000EAA6F000E22
:1028E800AB6F000EAC6F000EAD6FAC8F08D0000E52
:1028F800AA6F000EAB6F000EAC6F000EAD6FB35138
:10290800D8B403D0B851D8A409D0000EA66F000ED1
:10291800A76F000EA86F000EA96F1200AC51A60396
:10292800F3CFBDF1F4CFBEF1BD51B46FB56BB66B4B
:10293800B76BBE51B96FBA6BBB6BBC6BAB51A7031E
:10294800F3CFBDF1F4CFBEF1BD51B427000EB523CE
:10295800B623B723BE51B927000EBA23BB23BC2325
:10296800AA51A803F3CFBDF1F4CFBEF1BD51B427EE
:10297800000EB523B623B723BE51B927000EBA23DC
:10298800BB23BC23B6C1B7F1B5C1B6F1B4C1B5F12B
:10299800B46BAA51A703F3CFBDF1F4CFBEF1BD517B
:1029A800B427BE51B523000EB623000EB723AB5192
:1029B800A603F3CFBDF1F4CFBEF1BD51B427BE518C
:1029C800B523000EB623000EB723B6C1B7F1B5C1C3
:1029D800B6F1B4C1B5F1B46BAA51A603F3CFBDF1FA
:1029E800F4CFBEF1BD51B427BE51B523000EB623B6
:1029F800000EB723AC51A703F3CFBDF1F4CFBEF15E
:102A0800BD51B927BE51BA23000EBB23000EBC230B
:102A1800AB51A803F3CFBDF1F4CFBEF1BD51B92737
:102A2800BE51BA23000EBB23000EBC23AC51A80331
:102A3800F3CFBDF1F4CFBEF1BD51AE6FBE51AF6F54
:102A4800B06BB16BB0C1B1F1AFC1B0F1AEC1AFF114
:102A5800AE6BAE51B927AF51BA23B051BB23B151B8
:102A6800BC23B4C1AEF1B5C1AFF1B6C1B0F1B7C1C5
:102A7800B1F1190E05D0D890B133B033AF33AE33BE
:102A8800E82EF9D7AE51B927AF51BA23B051BB23BD
:102A9800B151BC23B6C1B7F1B5C1B6F1B4C1B5F1F6
:102AA800B46BB351B8C1AEF1AF6BAE27000EAF2314
:102AB800820EAE25BD6FFF0EAF21BE6F0FD0D8902E
:102AC800B937BA37BB37BC37B7BFB981D890B43735
:102AD800B537B637B737BD07D8A0BE07BBAFEFD7F6
:102AE800000EB36FB7AF16D0FF0EB415AE6FFF0E62
:102AF800B515AF6FFF0EB615B06F7F0EB715B16F76
:102B0800AE51AF11B011B111D8A402D0B9A102D001
:102B1800010EB36FB351D8B41FD0010EB927000E00
:102B2800BA23BB23BC23BCA117D0B9C1AEF1BAC12B
:102B3800AFF1BBC1B0F1BCC1B1F1B135B133B03304
:102B4800AF33AE33AEC1B9F1AFC1BAF1B0C1BBF169
:102B5800B1C1BCF1BD4BBE2BBEBF0DD0BE5103E110
:102B6800BD29D8A008D0000EB96F000EBA6F800E2C
:102B7800BB6F7F0E20D0BEBF05D0BE510EE1BD0594
:102B8800D8B00BD0000EB96F000EBA6F000EBB6F35
:102B9800000EBC6F000EB26F0FD0BDC1B8F1FF0EB2
:102BA800B917FF0EBA177F0EBB17000EBC17B8B1C6
:102BB800BB8FD890B831BC6FB251BC13B9C1A6F164
:102BC800BAC1A7F1BBC1A8F1BCC1A9F1120020503C
:102BD800800B296E205020242F6E1FBE2F802F506F
:102BE800D8B40DD02F28D8A408D0000E1D6E000E22
:102BF8001E6E000E1F6E000E206E1F8E08D0000E77
:102C08001D6E000E1E6E000E1F6E000E206E2450EC
:102C1800800B291A245024242A6E23BE2A802A5085
:102C2800D8B40DD02A28D8A408D0000E216E000EE2
:102C3800226E000E236E000E246E238E08D0000E26
:102C4800216E000E226E000E236E000E246E2A5096
:102C5800D8B403D02F50D8A409D0000E1D6E000E92
:102C68001E6E000E1F6E000E206E120023501D02F5
:102C7800F3CF34F0F4CF35F034502B6E2C6A2D6A34
:102C88002E6A3550306E316A326A336A22501E021B
:102C9800F3CF34F0F4CF35F034502B26000E2C222D
:102CA8002D222E2235503026000E31223222332298
:102CB80021501F02F3CF34F0F4CF35F034502B26D7
:102CC800000E2C222D222E2235503026000E3122C5
:102CD800322233222DC02EF02CC02DF02BC02CF028
:102CE8002B6A21501E02F3CF34F0F4CF35F0345064
:102CF8002B2635502C22000E2D22000E2E2222507B
:102D08001D02F3CF34F0F4CF35F034502B26355074
:102D18002C22000E2D22000E2E222DC02EF02CC0AB
:102D28002DF02BC02CF02B6A21501D02F3CF34F06C
:102D3800F4CF35F034502B2635502C22000E2D229E
:102D4800000E2E2223501E02F3CF34F0F4CF35F0BC
:102D58003450302635503122000E3222000E3322F4
:102D680022501F02F3CF34F0F4CF35F03450302620
:102D780035503122000E3222000E332223501F021A
:102D8800F3CF34F0F4CF35F03450256E3550266E3D
:102D9800276A286A27C028F026C027F025C026F011
:102DA800256A2550302626503122275032222850B5
:102DB80033222BC025F02CC026F02DC027F02EC0C2
:102DC80028F0190E05D0D89028322732263225321D
:102DD800E82EF9D7255030262650312227503222A6
:102DE800285033222DC02EF02CC02DF02BC02CF0F3
:102DF8002B6A2A502FC025F0266A2526000E262287
:102E0800820E2524346EFF0E2620356E0FD0D89002
:102E180030363136323633362EBE3080D8902B36A7
:102E28002C362D362E363406D8A0350632AEEFD7DE
:102E3800000E2A6E2EAE16D0FF0E2B14256EFF0E36
:102E48002C14266EFF0E2D14276E7F0E2E14286E5E
:102E58002550261027102810D8A402D030A002D060
:102E6800010E2A6E2A50D8B41FD0010E3026000E4B
:102E780031223222332233A017D030C025F031C09E
:102E880026F032C027F033C028F028342832273201
:102E98002632253225C030F026C031F027C032F066
:102EA80028C033F0344A352A35BE0DD0355003E1F9
:102EB8003428D8A008D0000E306E000E316E800E77
:102EC800326E7F0E20D035BE05D035500EE1340469
:102ED800D8B00BD0000E306E000E316E000E326E80
:102EE800000E336E000E296E0FD034C02FF0FF0E87
:102EF8003016FF0E31167F0E3216000E33162FB025
:102F0800328ED8902F30336E2950331230C01DF0D6
:102F180031C01EF032C01FF033C020F01200010192
:102F2800C651800BD36FC651C625D56FC5BFD58195
:102F3800D551D8B40DD0D529D8A408D0000EC36F68
:102F4800000EC46F000EC56F000EC66FC58F06D089
:102F5800000EC36F000EC46F000EC56F000EC66F63
:102F6800CA51800BD46FD351D419D8A4D38DCA5168
:102F7800CA25D46FC9BFD481D451D8B40DD0D429AF
:102F8800D8A408D0000EC76F000EC86F000EC96F16
:102F9800000ECA6FC98F06D0000EC76F000EC86F2B
:102FA800000EC96F000ECA6FD551D45DD8B022D0BB
:102FB800D3AD02D0800ED31BD5C1D6F1D4C1D5F183
:102FC800D6C1D4F1C3C1D6F1C7C1C3F1D6C1C7F1C7
:102FD800C4C1D6F1C8C1C4F1D6C1C8F1C5C1D6F1C2
:102FE800C9C1C5F1D6C1C9F1C6C1D6F1CAC1C6F1B8
:102FF800D6C1CAF1000ED66FD551CB6FCC6BCB1FA3
:10300800CC1FCB4BCC2BD451CD6FCE6BCB51CD2716
:10301800CC51CE23CEBF2CD0CE5104E11A0ECD5DBB
:10302800D8A026D0C351C411C511C611D8B402D036
:10303800010E01D0000ED66F000EC36F000EC46FD4
:10304800000EC56F000EC66FD4C1D5F115D0D6A13C
:1030580005D0D890D6310109D66F02D0D890D63392
:10306800C3B1D68FC635C633C533C433C333D52BA6
:10307800D451D55DD8A0EBD7D3BD29D0D551D8A48C
:1030880009D0000EC36F000EC46F000EC56F000E8E
:10309800C66F1200C751C327C851C423C951C523DD
:1030A800CA51C623C6A183D0D6A106D0D890D6339C
:1030B800D6510109D66F02D0D890D633C3B1D68F76
:1030C800C635C633C533C433C333D52B70D0C751C7
:1030D800C35DC851C459C951C559C651800ACB6F7F
:1030E800CA51800ACB59D8B036D0C3C1CBF1C4C1BC
:1030F800CCF1C5C1CDF1C6C1CEF1CB1FCC1FCD1FC0
:10310800CE1FCB2B000ECC23CD23CE23C751CB25EE
:10311800CF6FC851CC21D06FC951CD21D16FCA51C1
:10312800CE21D26FFF0ECF25C36FFF0ED021C46F03
:10313800FF0ED121C56FFF0ED221C66F800ED31BA3
:10314800D66DD651D8A40FD0010EC327000EC423C4
:10315800C523C62308D0C751C35FC851C45BC95132
:10316800C55BCA51C65BC351C411C511C611D8A4E9
:103178001CD0D651D8A419D0000EC36F000EC46F4E
:10318800000EC56F000EC66F1200D890C337C43743
:10319800C537C637D6BFC381D6A102D0D88001D0E3
:1031A800D890D637D551D8A4D507C5AFEED7000EDD
:1031B800D46FD6AF0AD0D6C1CBF17F0ECB17D8A427
:1031C80002D0C3A102D0010ED46FD451D8B420D0FC
:1031D800010EC327000EC423C523C623C6A118D0D9
:1031E800C3C1CBF1C4C1CCF1C5C1CDF1C6C1CEF1CB
:1031F800CE35CE33CD33CC33CB33CBC1C3F1CCC1F9
:10320800C4F1CDC1C5F1CEC1C6F1D529D8A4D52BFD
:10321800D529D8B403D0D551D8A40DD0000EC36F8A
:10322800000EC46F000EC56F000EC66FD551D8A42E
:1032380002D0000ED36FD5A102D0C58F01D0C59F93
:10324800D890D531C66FD3BFC68FC3C1C3F1C4C12F
:10325800C4F1C5C1C5F1C6C1C6F112005250800BF8
:103268000001606F52505224626F51BE62816251F8
:10327800D8B40DD06229D8A408D0000E4F6E000E25
:10328800506E000E516E000E526E518E06D0000E1A
:103298004F6E000E506E000E516E000E526E56505C
:1032A800800B616F60516119D8A4608D5650562407
:1032B800616F55BE61816151D8B40DD06129D8A420
:1032C80008D0000E536E000E546E000E556E000EA0
:1032D800566E558E06D0000E536E000E546E000EBC
:1032E800556E000E566E6251615DD8B022D060AD49
:1032F80002D0800E601B62C063F061C062F063C0E0
:1033080061F04FC063F053C04FF063C053F050C03A
:1033180063F054C050F063C054F051C063F055C01E
:1033280051F063C055F052C063F056C052F063C00C
:1033380056F0000E636F6251576E586A571E581E3A
:10334800574A582A6151596E5A6A57505926585047
:103358005A225ABE2CD05A5004E11A0E595CD8A0F1
:1033680026D04F50501051105210D8B402D0010E30
:1033780001D0000E636F000E4F6E000E506E000EEF
:10338800516E000E526E61C062F015D063A105D077
:10339800D89063310109636F02D0D89063334FB07E
:1033A800638F52345232513250324F32622B615154
:1033B800625DD8A0EBD760BD29D06251D8A409D0EE
:1033C800000E4F6E000E506E000E516E000E526EC3
:1033D800120053504F2654505022555051225650E7
:1033E800522252A083D063A106D0D8906333635190
:1033F8000109636F02D0D89063334FB0638F5234A2
:103408005232513250324F32622B70D053504F5C8F
:1034180054505058555051585250800A576E565073
:10342800800A5758D8B036D04FC057F050C058F01F
:1034380051C059F052C05AF0571E581E591E5A1EF4
:10344800572A000E582259225A22535057245B6E8D
:10345800545058205C6E555059205D6E56505A2075
:103468005E6EFF0E5B244F6EFF0E5C20506EFF0EEB
:103478005D20516EFF0E5E20526E800E601B636DE4
:103488006351D8A40FD0010E4F26000E50225122AE
:10349800522208D053504F5E5450505A5550515AEA
:1034A8005650525A4F50501051105210D8A41CD098
:1034B8006351D8A419D0000E4F6E000E506E000E46
:1034C800516E000E526E1200D8904F36503651365B
:1034D800523663BF4F8063A102D0D88001D0D89004
:1034E80063376251D8A4620751AEEED7000E616F00
:1034F80063AF0AD063C057F07F0E5716D8A402D026
:103508004FA002D0010E616F6151D8B420D0010ED6
:103518004F26000E50225122522252A018D04FC0DE
:1035280057F050C058F051C059F052C05AF05A34B0
:103538005A3259325832573257C04FF058C050F0AB
:1035480059C051F05AC052F06229D8A4622B62299E
:10355800D8B403D06251D8A40DD0000E4F6E000E1F
:10356800506E000E516E000E526E6251D8A402D0F9
:10357800000E606F62A102D0518E01D0519ED8908A
:103588006231526E60BF528E4FC04FF050C050F043
:1035980051C051F052C052F01200000E0001706F7D
:1035A800000E716F000E726F000E736F000E686F61
:1035B800000E696F000E6A6F000E6B6F000E6C6F65
:1035C800000E6D6F000E6E6F000E6F6F000E746F41
:1035D800000E756F000E766F000E776F96C10FF0B4
:1035E80097C110F0000E10BEFF0E116E126E010E84
:1035F800C2EC21F00FC04FF010C050F011C051F0D4
:1036080012C052F0CDC00FF0CEC010F0000E10BEA8
:10361800FF0E116E126E010EC2EC21F00FC036F0D3
:1036280010C037F011C038F012C039F06CEC28F037
:1036380036C053F037C054F038C055F039C056F092
:1036480032EC19F04FC070F050C071F051C072F0F8
:1036580052C073F00001B3BF06D0B35103E1280E86
:10366800B25DD8B0E2D0CEBF06D04C0ECD5D040E10
:10367800CE59D8B0DAD0CEBFD8D0BD0ECD5D020EAF
:10368800CE59D8A0D2D0F30EF66EFF0EF76E090011
:10369800F5CF1DF00900F5CF1EF00900F5CF1FF09A
:1036A8000A00F5CF20F070C021F071C022F072C07E
:1036B80023F073C024F0EBEC15F01DC068F01EC0B9
:1036C80069F01FC06AF020C06BF070C053F071C081
:1036D80054F072C055F073C056F02CC236F02DC2AB
:1036E80037F02EC238F02FC239F06CEC28F036C013
:1036F8004FF037C050F038C051F039C052F032ECBA
:1037080019F04FC01DF050C01EF051C01FF052C03C
:1037180020F0EF0EF66EFF0EF76E0900F5CF21F0E0
:103728000900F5CF22F00900F5CF23F00A00F5CF04
:1037380024F0EBEC15F01DC06CF01EC06DF01FC03E
:103748006EF020C06FF06CC053F06DC054F06EC0C6
:1037580055F06FC056F068C04FF069C050F06AC0AD
:1037680051F06BC052F032EC19F04FC036F050C037
:1037780037F051C038F052C039F06CEC28F036C040
:1037880074F037C075F038C076F039C077F0EB0EBA
:10379800F66EFF0EF76E0900F5CF1DF00900F5CFA4
:1037A8001EF00900F5CF1FF00A00F5CF20F074C015
:1037B80021F075C022F076C023F077C024F08BEC9E
:1037C80023F0D8B005D0EB0EF66EFF0EF76E20D0C2
:1037D80074C01DF075C01EF076C01FF077C020F0D1
:1037E800E70EF66EFF0EF76E0900F5CF21F009001F
:1037F800F5CF22F00900F5CF23F00A00F5CF24F029
:103808008BEC23F0D8B01AD0E70EF66EFF0EF76EE9
:103818000900F5CF74F00900F5CF75F00900F5CF70
:1038280076F00A00F5CF77F009D0000E0001746F2A
:10383800000E756F000E766F000E776F70C02CF259
:1038480071C02DF272C02EF273C02FF274C064F0F2
:1038580075C065F076C066F077C067F012000101A8
:10386800DA51800BE36FDA51DA25EE6FD9BFEE81BA
:10387800EE51D8B40DD0EE29D8A408D0000ED76FD9
:10388800000ED86F000ED96F000EDA6FD98F06D0F0
:10389800000ED76F000ED86F000ED96F000EDA6FCA
:1038A800DE51800BE31BDE51DE25EF6FDDBFEF81BC
:1038B800EF51D8B40DD0EF29D8A408D0000EDB6F93
:1038C800000EDC6F000EDD6F000EDE6FDD8F06D0A0
:1038D800000EDB6F000EDC6F000EDD6F000EDE6F7A
:1038E800DB51DC11DD11DE11D8A415D0000ED76F25
:1038F800000ED86F000ED96F000EDA6F800ED91344
:103908007F0EDA13D7C1D7F1D8C1D8F1D9C1D9F10F
:10391800DAC1DAF11200EE51D8A411D0000ED76F37
:10392800000ED86F000ED96F000EDA6FD7C1D7F12D
:10393800D8C1D8F1D9C1D9F1DAC1DAF11200EF5101
:10394800DF6FE06BDF1FE01FDF4BE02BEE51E16F15
:10395800E26BDF51E127E051E2237F0EE125E86FBA
:10396800000EE221E96FD7C1E4F1D8C1E5F1D9C170
:10397800E6F1DAC1E7F1000ED76F000ED86F000E3E
:10398800D96F000EDA6F000EEA6F000EEB6F000EB3
:10399800EC6F000EED6F000EEF6F28D0EF51D8B42A
:1039A80011D0D890E437E537E637E737D890D737DE
:1039B800D837D937DA37EDBFD781D890EA37EB3720
:1039C800EC37ED37DB51E45DDC51E559DD51E65963
:1039D800DE51E759D8A009D0ED8DDB51E45FDC5109
:1039E800E55BDD51E65BDE51E75BEF2B190EEF651A
:1039F800D5D7E451E511E611E711D8B411D0EA8121
:103A08000FD0D890D737D837D937DA37EDBFD78125
:103A1800D890EA37EB37EC37ED37E807D8A0E90755
:103A2800D9AFEFD7000EEF6FEDAF16D0FF0EEA1546
:103A3800DF6FFF0EEB15E06FFF0EEC15E16F7F0EE9
:103A4800ED15E26FDF51E011E111E211D8A402D0C7
:103A5800D7A102D0010EEF6FEF51D8B41FD0010EDD
:103A6800D727000ED823D923DA23DAA117D0D7C154
:103A7800DFF1D8C1E0F1D9C1E1F1DAC1E2F1E23513
:103A8800E233E133E033DF33DFC1D7F1E0C1D8F10E
:103A9800E1C1D9F1E2C1DAF1E84BE92BE9BF10D075
:103AA800E95103E1E829D8A00BD0000EE96FE869D5
:103AB800000ED76F000ED86F000ED96F000EDA6FA8
:103AC800E9BF05D0E95111E1E805D8B00ED0000EE4
:103AD800E96F000EE86F000ED76F000ED86F000E6A
:103AE800D96F000EDA6F000EE36FE8C1EEF1EEA1B8
:103AF80002D0D98F01D0D99FD890EE31DA6FE35137
:103B0800DA13D7C1D7F1D8C1D8F1D9C1D9F1DAC1FF
:103B1800DAF112003950800B426E395039244D6E5B
:103B280038BE4D804D50D8B40DD04D28D8A408D0FB
:103B3800000E366E000E376E000E386E000E396EAF
:103B4800388E06D0000E366E000E376E000E386EB8
:103B5800000E396E3D50800B421A3D503D244E6E8A
:103B68003CBE4E804E50D8B40DD04E28D8A408D0B4
:103B7800000E3A6E000E3B6E000E3C6E000E3D6E5F
:103B88003C8E06D0000E3A6E000E3B6E000E3C6E68
:103B9800000E3D6E3A503B103C103D10D8A415D095
:103BA800000E366E000E376E000E386E000E396E3F
:103BB800800E38127F0E391236C036F037C037F013
:103BC80038C038F039C039F012004D50D8A411D09F
:103BD800000E366E000E376E000E386E000E396E0F
:103BE80036C036F037C037F038C038F039C039F051
:103BF80012004E503E6E3F6A3E1E3F1E3E4A3F2A0E
:103C08004D50406E416A3E5040263F5041227F0E43
:103C18004024476E000E4120486E36C043F037C03E
:103C280044F038C045F039C046F0000E366E000E3C
:103C3800376E000E386E000E396E000E496E000E9B
:103C48004A6E000E4B6E000E4C6E000E4E6E28D063
:103C58004E50D8B411D0D8904336443645364636FF
:103C6800D89036363736383639364CBE3680D89006
:103C780049364A364B364C363A50435C3B504458EA
:103C88003C5045583D504658D8A009D04C8C3A5025
:103C9800435E3B50445A3C50455A3D50465A4E2A82
:103CA800190E4E64D5D74350441045104610D8B469
:103CB80011D049800FD0D890363637363836393655
:103CC8004CBE3680D89049364A364B364C36470675
:103CD800D8A0480638AEEFD7000E4E6E4CAE16D0C0
:103CE800FF0E49143E6EFF0E4A143F6EFF0E4B1432
:103CF800406E7F0E4C14416E3E503F1040104110F4
:103D0800D8A402D036A002D0010E4E6E4E50D8B4C0
:103D18001FD0010E3626000E37223822392239A04C
:103D280017D036C03EF037C03FF038C040F039C039
:103D380041F04134413240323F323E323EC036F0EB
:103D48003FC037F040C038F041C039F0474A482AF0
:103D580048BE10D0485003E14728D8A00BD0000E29
:103D6800486E4768000E366E000E376E000E386ECD
:103D7800000E396E48BE05D0485011E14704D8B04E
:103D88000ED0000E486E000E476E000E366E000E06
:103D9800376E000E386E000E396E000E426E47C048
:103DA8004DF04DA002D0388E01D0389ED8904D30BD
:103DB800396E4250391236C036F037C037F038C045
:103DC80038F039C039F01200BE50BFCF5AF20201A4
:103DD8005B6B5AC25BF25A6B5A110101946F020174
:103DE8005B510101956F950EAA6FBF0EAB6F560E12
:103DF800AC6F350EAD6F94C198F195C199F19A6B7E
:103E08009B6B000E18EC21F098C1A6F199C1A7F19F
:103E18009AC1A8F19BC1A9F142EC14F0A6C1DBF14B
:103E2800A7C1DCF1A8C1DDF1A9C1DEF1000E0101D5
:103E3800D76F000ED86F800ED96F3F0EDA6F33EC54
:103E48001CF0D7C1F0F1D8C1F1F1D9C1F2F1DAC152
:103E5800F3F19BEC24F00101F0518F6F8F510201B7
:103E68005A6F5B6B01018E51020D000EF324D96E5F
:103E7800020EF420DA6E5AC2DEFF5BC2DDFF010ECD
:103E88008E25986F996B000E9923000E9B6F0A0E72
:103E98009A6FB8EC26F0010198518E6F090E8D6566
:103EA80006D0000E02015D6F0A0E5C6F08D0010E8D
:103EB80001018D2502015C6F5D6B000E5D235CC204
:103EC8008DF1000E0101516F000E506F000E8C6FC6
:103ED80017D08C51020D000EF324D96E020EF42077
:103EE800DA6EDECF5AF2DDCF5BF2505102015A256D
:103EF8000101506F515102015B210101516F8C2B5F
:103F08008D518C5DD8A0E5D750C198F151C199F178
:103F18008DC19AF19B6BE9EC27F0010198518F6FE5
:103F2800970E8F6145D0310E8F6542D0CE0E8F250A
:103F38000001B06FB16BFF0EB123B0C098F1B1C0F2
:103F480099F1000E01019B6F0A0E9A6FE9EC27F0B8
:103F5800010198510001BE6FB0C098F1B1C099F14C
:103F6800000E01019B6F0A0E9A6FE9EC27F0010120
:103F7800985100080A0F0001BD6FBE515A0DF3CFCA
:103F88005AF2F4CF5BF2BD51850DF35002015A2568
:103F98000001CF6FF45002015B210001D06FCFC048
:103FA8007EF1D0C07FF1BEC093F1BDC092F1120086
:103FB800A90E01018F651AD0BF0E8F6117D07E51EF
:103FC8007F11D8B409D07EC1CFF07FC1D0F093C1A2
:103FD800BEF092C1BDF01200040E0001D06F7E0E3B
:103FE800CF6F050EBE6F050EBD6F1200040E0001E7
:103FF800D06F7E0ECF6F050EBE6F050EBD6F12001F
:10400800BE50BFCF6EF000016F6B6EC06FF06E6B6D
:104018006E110101946F00016F510101956F950EAA
:10402800216EBF0E226E560E236E350E246E94C17D
:104038000FF095C110F0116A126A000EC2EC21F05F
:104048000FC01DF010C01EF011C01FF012C020F0EC
:10405800EBEC15F01DC03AF01EC03BF01FC03CF061
:1040680020C03DF0000E366E000E376E800E386EA2
:104078003F0E396E8EEC1DF036C064F037C065F027
:1040880038C066F039C067F018EC25F000016451BB
:1040980001018F6F8F5100016E6F6F6B01018E519F
:1040A800020D000EF324D96E020EF420DA6E6EC0F3
:1040B800DEFF6FC0DDFF010E8E25016E026A000E65
:1040C8000222000E046E0A0E036EF1EC26F0015077
:1040D80001018E6F090E8D6506D0000E0001716F0B
:1040E8000A0E706F08D0010E01018D250001706F56
:1040F800716B000E712370C08DF1000E0101516FBC
:10410800000E506F000E8C6F17D08C51020D000EF0
:10411800F324D96E020EF420DA6EDECF6EF0DDCF16
:104128006FF0505100016E250101506F515100018F
:104138006F210101516F8C2B8D518C5DD8A0E5D773
:1041480050C101F051C102F08DC103F0046A13ECB3
:1041580028F0015001018F6F970E8F613DD0310E0D
:104168008F653AD0CE0E8F250001B06FB16BFF0E70
:10417800B123B0C001F0B1C002F0000E046E0A0E07
:10418800036E13EC28F001500001BE6FB0C001F0BF
:10419800B1C002F0000E046E0A0E036E13EC28F094
:1041A800015000080A0F0001BD6FBE515A0DF3CF30
:1041B8006EF0F4CF6FF0BD51850DF3506E25CF6FC3
:1041C800F4506F21D06FCFC07EF1D0C07FF1BEC058
:1041D80093F1BDC092F11200A90E01018F651AD0AA
:1041E800BF0E8F6117D07E517F11D8B409D07EC120
:1041F800CFF07FC1D0F093C1BEF092C1BDF01200E4
:10420800040E0001D06F7E0ECF6F050EBE6F050E37
:10421800BD6F1200040E0001D06F7E0ECF6F050E29
:10422800BE6F050EBD6F12000101A06F0101A05104
:10423800D8A49BAF1AD098C19CF199C19DF19AC19D
:104248009EF19BC19FF19C1F9D1F9E1F9F1F9C2B32
:10425800000E9D239E239F239CC1A2F19DC1A3F123
:104268009EC1A4F19FC1A5F108D098C1A2F199C13E
:10427800A3F19AC1A4F19BC1A5F1985199119A1182
:104288009B11D8A409D0000E986F000E996F000EEC
:104298009A6F000E9B6F1200960EA16F06D0A12B8D
:1042A800D890A533A433A333A233000EA2159C6F74
:1042B800000EA3159D6F000EA4159E6FFE0EA5158A
:1042C8009F6F9C519D119E119F11D8B40DD0E7D7B7
:1042D800A12B010EA227000EA323A423A523D89067
:1042E800A533A433A333A233000EA2159C6F000E8E
:1042F800A3159D6F000EA4159E6FFF0EA5159F6F49
:104308009C519D119E119F11D8B407D0E1D7A107E8
:10431800D890A237A337A437A537A4BF03D0020E7D
:10432800A161F5D7A1B108D0FF0EA217FF0EA31700
:104338007F0EA417FF0EA517D890A133A1C19CF139
:104348009D6B9E6B9F6B9CC19FF19E6B9D6B9C6B45
:104358009C51A2139D51A3139E51A4139F51A513C1
:10436800A051D8A49BAF01D0A58FA2C198F1A3C139
:1043780099F1A4C19AF1A5C19BF11200176E1750CB
:10438800D8A412AE1AD00FC013F010C014F011C088
:1043980015F012C016F0131E141E151E161E132A31
:1043A800000E14221522162213C019F014C01AF098
:1043B80015C01BF016C01CF008D00FC019F010C0B3
:1043C8001AF011C01BF012C01CF00F501010111081
:1043D8001210D8A409D0000E0F6E000E106E000E39
:1043E800116E000E126E1200960E186E06D0182A64
:1043F800D8901C321B321A321932000E1914136E5F
:10440800000E1A14146E000E1B14156EFE0E1C14EA
:10441800166E1350141015101610D8B40DD0E7D717
:10442800182A010E1926000E1A221B221C22D890C7
:104438001C321B321A321932000E1914136E000E78
:104448001A14146E000E1B14156EFF0E1C14166E33
:104458001350141015101610D8B407D0E1D7180649
:10446800D89019361A361B361C361BBE03D0020EDE
:104478001860F5D718B008D0FF0E1916FF0E1A16D7
:104488007F0E1B16FF0E1C16D890183218C013F09A
:10449800146A156A166A13C016F0156A146A136A44
:1044A8001350191214501A1215501B1216501C12C0
:1044B8001750D8A412AE01D01C8E19C00FF01AC024
:1044C80010F01BC011F01CC012F01200000E010108
:1044D800A615AE6F000EA715AF6F800EA815B06FAA
:1044E8007F0EA915B16FAE51AF11B011B111D8A49B
:1044F80008D0000EA66F000EA76F000EA86F000E62
:10450800A96F000EAA15AE6F000EAB15AF6F800E27
:10451800AC15B06F7F0EAD15B16FAE51AF11B011C4
:10452800B111D8A408D0000EAA6F000EAB6F000E10
:10453800AC6F000EAD6FA9AF1DD0A6C1AEF1A7C17B
:10454800AFF1A8C1B0F1A9C1B1F1AE1FAF1FB01F43
:10455800B11FAE2B000EAF23B023B123000EAE2542
:10456800A66F000EAF21A76F000EB021A86F800EB6
:10457800B121A96FADAF1DD0AAC1AEF1ABC1AFF1EA
:10458800ACC1B0F1ADC1B1F1AE1FAF1FB01FB11FCB
:10459800AE2B000EAF23B023B123000EAE25AA6FB9
:1045A800000EAF21AB6F000EB021AC6F800EB121B1
:1045B800AD6F000EA61B000EA71B000EA81B800ED9
:1045C800A91B000EAA1B000EAB1B000EAC1B800E15
:1045D800AD1BAA51A65DAB51A759AC51A859AD5115
:1045E800A959D8B002D0D8901200D88012008EEC09
:1045F80027F08D828A8C8B8C8B828C868C928B8018
:104608008C9E000E0101776FC80E766F000E736FD7
:10461800C80E726F000E756F000E746F000E716F0A
:10462800000E706F000E6D6F000E6C6F000E6F6FD6
:10463800000E6E6FFA0E4C6FFF0E4D6F000E4E6F30
:10464800000E4F6FFF0E486FFF0E496F000E4A6F46
:10465800000E4B6F0001C269000ECE6F000ECD6FC9
:10466800000E01017B6F000E7A6F000E0201306FA1
:10467800000E316F000E326F000E336F000E010115
:104688005D6F000E5C6F000E796F000E786FD08E34
:10469800F1949F90A2829F928B8C8B92E00E0201E4
:1046A800846F000E836F25EC29F08B82420EE82E72
:1046B800FED700D08B926A0EE82EFED700D08B82F0
:1046C800420EE82EFED700D08B928B82420EE82E47
:1046D800FED700D08B921F0E0201846F000E836FED
:1046E80025EC29F08B82420EE82EFED700D08B9263
:1046F8002A0E0201846F836925EC29F08B8264EC11
:1047080029F0F28EF28C9D80F2889D84FFD7000EEE
:104718001D14256E000E1E14266E800E1F14276EA3
:104728007F0E2014286E2550261027102810D8A494
:1047380008D0000E1D6E000E1E6E000E1F6E000EBD
:10474800206E000E2114256E000E2214266E800E97
:104758002314276E7F0E2414286E25502610271048
:104768002810D8A408D0000E216E000E226E000E6C
:10477800236E000E246E20AE1DD01DC025F01EC075
:1047880026F01FC027F020C028F0251E261E271E51
:10479800281E252A000E262227222822000E25243C
:1047A8001D6E000E26201E6E000E27201F6E800E26
:1047B8002820206E24AE1DD021C025F022C026F06E
:1047C80023C027F024C028F0251E261E271E281ED9
:1047D800252A000E262227222822000E2524216EB3
:1047E800000E2620226E000E2720236E800E282021
:1047F800246E000E1D1A000E1E1A000E1F1A800EBF
:10480800201A000E211A000E221A000E231A800EFA
:10481800241A21501D5C22501E5823501F58245022
:104828002058D8B002D0D8901200D88012009A8EA2
:1048380087827E7B79767473716F6E6D6B6A696837
:10484800676665656463626261605F5F5E5E5D5C4A
:104858005C5B5B5A5A5959585857575756565555CD
:1048680054545453535252525151515050504F4F27
:104878004E4E4E4D4D4D4D4C4C4C4B4B4B4A4A4A6F
:1048880049494949484848474747474646464545AC
:1048980045454444444443434342424242414141E2
:1048A80041404040403F3F3F3E3E3E3E3D3D3D3D16
:1048B8003C3C3C3C3B3B3B3B3A3A3A3A3939393849
:1048C800383838373737373636363635353534347D
:1048D8003434333333323232323131313030302FB5
:1048E8002F2F2F2E2E2E2D2D2D2C2C2C2B2B2B2AF3
:1048F8002A29292928282827272626262525242441
:104908002323232222212120201F1E1E1D1D1C1CA3
:104918001B1A1A19181717161514131211100F0E3F
:104928000C0B090806040200FDF9F4EDE200010190
:10493800F235F3350201596F5951D8A40AD0000E47
:104948000101F06F000EF16F000EF26F000EF36FB1
:104958001200F0C1F4F1F1C1F5F1F2C1F6F1F3C1C1
:10496800F7F1200E06D00101D890F733F633F5336E
:10497800F433E82EF8D7F4510201586F0101F28F91
:10498800FF0EF017FF0EF117FF0EF217000EF317C8
:10499800960E0201595F59AF19D05951800A970FE5
:1049A800D8B00AD0000E0101F06F000EF16F000EB2
:1049B800F26F000EF36F12000101D890F333F23357
:1049C800F133F0330201593FF7D719D01F0E59655B
:1049D80012D0000E0101F06F000EF16F000EF26FA1
:1049E800000EF36F12000101D890F037F137F2375B
:1049F800F3370201590702015951D8A4F4D7585185
:104A0800D8B409D00101F31FF21FF11FF06D000E99
:104A1800F123F223F323F0C1F0F1F1C1F1F1F2C176
:104A2800F2F1F3C1F3F112000001663567356D6FDD
:104A38006D51D8A409D0000E646F000E656F000E8A
:104A4800666F000E676F120064C068F065C069F099
:104A580066C06AF067C06BF0200E05D0D8906B3343
:104A68006A3369336833E82EF9D768516C6F668FFB
:104A7800FF0E6417FF0E6517FF0E6617000E671707
:104A8800960E6D5F6DAF16D06D51800A970FD8B036
:104A980009D0000E646F000E656F000E666F000E81
:104AA800676F1200D89067336633653364336D3FA0
:104AB800F9D715D01F0E6D650FD0000E646F000E6C
:104AC800656F000E666F000E676F1200D89064372E
:104AD8006537663767376D076D51D8A4F7D76C51BE
:104AE800D8B408D0671F661F651F646D000E652364
:104AF8006623672364C064F065C065F066C066F02D
:104B080067C067F01200380EF66E240EF76E000EBE
:104B1800F86E04EE00F014EE4CF00900F5CFEEFF4D
:104B2800E550E150FAE1E250F8E1360EF66E480E33
:104B3800F76E000EF86E03EE00F011EE00F00900BB
:104B4800F5CFEEFFE550E150FAE1E250F8E1580EFA
:104B5800F66E530EF76E000EF86E02EE85F010EE4C
:104B68000BF00900F5CFEEFFE550E150FAE1820EB7
:104B7800F66E530EF76E000EF86E01EEF8F010EEBA
:104B880008F00900F5CFEEFFE550E150FAE1920E8A
:104B9800F66E530EF76E000EF86E0900F5CFCFF0E3
:104BA8000900F5CFD0F002EE00F0580EEE6AE806E4
:104BB800FDE101EE00F0980EEE6AE806FDE100EE78
:104BC80098F0370EEE6AE806FDE15F905F92000EFE
:104BD800F86E0001FBEF22F00B0EC2EC28F001C0CA
:104BE80062F102C063F1D89001016235D96E633574
:104BF800DA6E4C0ED926060EDA22DECF6EF0DDCF45
:104C08006FF06EC00FF06FC010F0116A126A000EDC
:104C1800C2EC21F00FC03CF110C03DF111C03EF1D3
:104C280012C03FF1000E536E800E546E880E556E02
:104C3800C30E566E3CC14FF03DC150F03EC151F01D
:104C48003FC152F032EC19F04FC064F050C065F02B
:104C580051C066F052C067F018EC25F000016451AD
:104C68000101646F656B1200000E0C6E0AAE06D06F
:104C7800096C0A1ED8B00A2A010E0C6E08AE06D0BE
:104C8800076C081ED8B0082A010E0C1A000E0E6E0A
:104C9800000E0D6E09500A10D8B41CD0010E0B6E10
:104CA80004D0D89009360A360B2A0AAEFAD7D8901B
:104CB8000D360E360950075C0A500858D8A005D0A2
:104CC8000950075E0A50085A0D80D8900A320932F6
:104CD8000B2EEDD70C50D8B404D00D6C0E1ED8B0E6
:104CE8000E2A0DC007F00EC008F01200B40E00D056
:104CF800E82EFDD7080EC2EC28F001500001BF6F66
:104D0800BF51930FBF6FBF29D8B41200BF51040D14
:104D1800000EF324D96E040EF420DA6EDECF30F1E3
:104D2800DECF31F1DECF32F1DECF33F130C11DF00D
:104D380031C11EF032C11FF033C120F0000E216EC8
:104D4800000E226E800E236E3F0E246E8BEC23F035
:104D5800D8B01200000E0101306F000E316F800EC6
:104D6800326F3F0E336F1200000E01019D6F99AF35
:104D780006D0986D991FD8B0992B010E9D6F9BAFE7
:104D880004D09A6D9B1FD8B09B2B9A519B11D8B415
:104D980018D0010E9C6F04D0D8909A379B379C2B63
:104DA8009BAFFAD79A51985D9B519959D8A004D0D6
:104DB8009A51985F9B51995BD8909B339A339C2F5B
:104DC800F1D79D51D8B404D0986D991FD8B0992BBC
:104DD80098C198F199C199F11200000E066E02AEC1
:104DE80006D0016C021ED8B0022A010E066E04AE6F
:104DF80004D0036C041ED8B0042A03500410D8B49D
:104E080018D0010E056E04D0D89003360436052A52
:104E180004AEFAD70350015C04500258D8A004D05D
:104E28000350015E0450025AD89004320332052E12
:104E3800F1D70650D8B404D0016C021ED8B0022AAB
:104E480001C001F002C002F01200B40E00D0E82E3A
:104E5800FDD7000E3CEC28F098C1B2F099C1B3F030
:104E6800000E0101A66F000EA76F180EA86F420E64
:104E7800A96FB2C098F1B3C099F1000E99BFFF0EA7
:104E88009A6F9B6F010E18EC21F098C1AAF199C195
:104E9800ABF19AC1ACF19BC1ADF16AEC22F0010112
:104EA800D8A01200000E0001B36F260EB26F1200D8
:104EB800050EC2EC28F001C0B6F002C0B7F0000E33
:104EC8000A6E640E096EB6C001F0B7C002F0000E9B
:104ED800046E310E036ED7EC28F07E0E0124076EA7
:104EE800FE0E0220086E38EC26F007C00FF008C04E
:104EF80010F0000E10BEFF0E116E126E010EC2EC05
:104F080021F00FC0C7F010C0C8F011C0C9F012C01E
:104F1800CAF012003F0E926E3B0E936E900E946E86
:104F2800680E956E010E966EA60EE82EFED700D07E
:104F3800000E0F01386F000E396F000E3A6F000E29
:104F48003B6F000E3C6F83EC28F074EC29F06CEC9E
:104F580029F05BEC29F03DEC29F07CEC29F0C30E3C
:104F6800BB6E18EC29F0C5EC29F00AEC29F08BECA3
:104F780029F012000001C22B01017A517B11D8B42B
:104F88001200020E0001C219D8A406D0000E026E4B
:104F9800000E016EB7EC29F0030E0001C219D8A467
:104FA8000ED0EAEC28F001C0CBF002C0CCF0FE0E27
:104FB800026E0C0E016EB2EC29F0A192A082000ED6
:104FC80001018B6F010E8A6F1200000E01019E6FA6
:104FD800000E9D6F9A519B11D8B41CD0010E9C6F86
:104FE80004D0D8909A379B379C2B9BAFFAD7D89090
:104FF8009D379E379A51985D9B519959D8A005D0F5
:105008009A51985F9B51995B9D81D8909B339A33B5
:105018009C2FEDD79DC198F19EC199F11200000E09
:10502800066E000E056E03500410D8B41CD0010E95
:10503800076E04D0D89003360436072A04AEFAD790
:10504800D890053606360350015C04500258D8A0A3
:1050580005D00350015E0450025A0580D8900432EE
:105068000332072EEDD705C001F006C002F012008A
:1050780001019B6F9BC19AF101019A479A47C2505F
:105088009A19830B9A19C26E210EE82EFED700F0EA
:10509800C282C2B2FED7C4CF98F10101996B120047
:1050A8000101BF51C011C111C211D8B408D0000EFE
:1050B800BF1B000EC01B000EC11B800EC21BBFC150
:1050C800BFF1C0C1C0F1C1C1C1F1C2C1C2F112007A
:1050D8003650371038103910D8B408D0000E361AA8
:1050E800000E371A000E381A800E391A36C036F0FC
:1050F80037C037F038C038F039C039F012000F0126
:1051080038813885388B3C8139893985C09EF30EC2
:10511800C116FC0EC116C080C082C094C050C70B17
:105128002009C06EC2801200040E3CEC28F098C121
:1051380066F199C167F1000E01016625D96E030E6B
:105148006721DA6EDF509C6F9C510001B46FB56B1C
:105158001200040EC2EC28F001C066F102C067F12B
:10516800000E01016625D96E030E6721DA6EDF5045
:10517800056E05500001B46FB56B1200046E04C0D3
:1051880003F003460346C2500318830B0318C26E8C
:10519800210EE82EFED700F0C282C2B2FED7C4CFDD
:1051A80001F0026A120001500302F3CF05F0F4CFB8
:1051B80006F001500402F350062602500302F35091
:1051C800062605C001F006C002F01200D650D7CF5F
:1051D80003F0046A03C004F0036A0310056E045068
:1051E800066E05C001F006C002F01200CE50CFCF07
:1051F80003F0046A03C004F0036A0310056E045048
:10520800066E05C001F006C002F012007D920F0183
:105218004E8B4E894E973F0E4E174E83000E4F6FA2
:10522800000E506F4E811200A092B19AB188B196CB
:105238003F0EB116B182000EB26E000EB36EB18091
:1052480012000201845184EC29F0C80EE82EFED722
:105258000201835184EC29F0120001019A5199EC62
:1052680029F0C80EE82EFED70101995199EC29F0D2
:1052780012009D90CD8ACD98CD963F0ECD16CD8249
:10528800CD80F28612000350A0EC29F0C80EE82E5B
:10529800FED70250A0EC29F012000350A6EC29F02A
:1052A800C80EE82EFED70250A6EC29F01200D590C1
:1052B800D592D594D59CD596D598D59AD58E1200E9
:1052C800310EC66E000EC76E94969488949A12009A
:1052D800300E6C6E000E6D6E95909582959812004A
:1052E800200EC66E400EC76E94969488949A12004B
:1052F800BA86BA88BA8ABA8CBA80BA82BA841200D4
:105308000201826F82C2C9FFC7B01200FDD7948420
:10531800050EBD6E0F014983499112000101986F76
:1053280098C1C9FFC7B01200FDD70101986F98C195
:105338006FFF6DB01200FDD7016E01C0C9FFC7B085
:105348001200FDD7016E01C06FFF6DB01200FDD7CE
:0B5358005A5A5F5F5F5F64647DA5AF81
:105364000250B36E01C0B2FF12000250D76E01C0EA
:10537400D6FF12000250CF6E01C0CEFF12002300F0
:1053840023000100FFFF9380F19CF2861200320596
:10EA3E0000000048430000484300004843000048DF
:10EA4E00430000484300004843000048430000488C
:10EA5E00430000484300004843000038410000389E
:10EA6E00415C8F32415C8F32415C8F32415C8F3220
:10EA7E0041000038410000384100003841000038A4
:10EA8E004100003841000038415C8F32415C8F32CA
:10EA9E0041AE472941AE4729417B1422410000383F
:10EAAE004100003841000038410000384100003874
:10EABE00415C8F32415C8F3241AE472941AE4729CE
:10EACE00417B1422410000384100003841000038DB
:10EADE004100003841000038415C8F32415C8F327A
:10EAEE0041AE472941AE4729417B142241000038EF
:10EAFE004100003841000038410000384100003824
:10EB0E00415C8F32415C8F3241AE472941AE47297D
:10EB1E00417B14224100003841000038410000388A
:10EB2E004100003841000038415C8F32415C8F3229
:10EB3E0041AE472941AE4729417B1422410000389E
:10EB4E0041000038410000384100003841000038D3
:10EB5E00415C8F32415C8F32415C8F32415C8F322F
:10EB6E0041000038410000384100003841000038B3
:10EB7E004100003841000038415C8F32415C8F32D9
:10EB8E0041AE472941AE4729417B1422410000384E
:10EB9E004100003841000038410000384100003883
:10EBAE00415C8F32415C8F3241AE472941AE4729DD
:10EBBE00417B1422410000384100003841000038EA
:10EBCE004100003841000038415C8F32415C8F3289
:10EBDE0041AE472941AE4729417B142241000038FE
:10EBEE004100003841000038410000384100003833
:10EBFE00415C8F32415C8F3241AE472941AE47298D
:10EC0E00417B142241000038410000384100003899
:10EC1E004100003841000038415C8F32415C8F3238
:10EC2E0041AE472941AE4729417B142241000038AD
:10EC3E0041000038410000384100003841000038E2
:10EC4E0041AE473541AE47354185EB254185EB2534
:10EC5E00417B142241AE473D41AE473D41AE473D5B
:10EC6E00410000384100003841AE473541AE4735CE
:10EC7E004185EB254185EB25417B1422415C8F427A
:10EC8E00415C8F42415C8F424100003841000038A8
:10EC9E004100003841000038417B1422417B142290
:10ECAE00417B1422410000484100004841000048C9
:10ECBE004100003841000038410000384100003862
:10ECCE00417B1422417B1422417B142241AE474DDD
:10ECDE0041AE474D41AE474D415C8F32415C8F3264
:10ECEE004100003841000038417B1422417B142240
:10ECFE004152B8B640AE474D415C8F4A415C8F4A97
:10ED0E004100003041000030410000384100003821
:10ED1E00419A991D419A991D410000D8405C8F4A35
:10ED2E0041AE474541AE474541AE472D41AE472D19
:10ED3E00415C8F3A415C8F3A419A991D41E17A18B4
:10ED4E00419A99F1400000484100004041000040C6
:10ED5E0041AE472D41AE472D415C8F3A415C8F3A13
:10ED6E0041E17A18415C8F124133330341AE47457E
:10ED7E00410000384100003841AE472D41AE472DCD
:10ED8E00415C8F3A415C8F3A415C8F1241333303C1
:10ED9E00411F850B41000040415C8F32415C8F3238
:10EDAE0041AE472D41AE472D41000038410000389D
:10EDBE0041E17A18415C8F12415C8F1241AE473DA2
:10EDCE00415C8F32415C8F3241AE472D41AE472DB3
:10EDDE0041AE473541AE4735417B142241E17A18A9
:10EDEE0041E17A1841000038415C8F32415C8F322C
:10EDFE0041AE472D41AE472D415C8F32415C8F3283
:10EE0E004185EB25417B1422417B1422415C8F32DC
:10EE1E00415C8F32415C8F3241AE472D41AE472D62
:10EE2E00410000304100003041AE472941AE472934
:10EE3E0041AE472941AE472D415C8F32415C8F3246
:10EE4E0041AE472D41AE472D41AE472D41AE472D28
:10EE5E0041AE472941EC512C41EC512C4100002888
:10EE6E00415C8F32415C8F3241AE472D41AE472D12
:10EE7E0041AE472D41AE472D41AE472941EC512CB5
:10EE8E0041EC512C41000028415C8F32415C8F32A5
:10EE9E00415C8F2A415C8F2A415C8F2A415C8F2A0C
:10EEAE0041EC512C413D0A2F413D0A2F415C8F2AE6
:10EEBE004100003041000030415C8F2A415C8F2AB6
:10EECE00415C8F2A415C8F2A41EC512C4114AE33A8
:10EEDE004114AE334100002841AE472D41AE472DBF
:10EEEE00410000284100002841000028415C8F2A83
:10EEFE00413D0A2F411F8537411F853741AE4725BA
:10EF0E00410000284100002841AE472541AE47256B
:10EF1E0041AE4725415C8F2A419A99314148E13AE9
:10EF2E0041AE4739415C8F2241AE472541AE472560
:10EF3E0041AE472541AE472541AE4725415C8F2A5C
:10EF4E00419A993141AE47394114AE334100002800
:10EF5E00410000284100002841AE472541AE47251B
:10EF6E0041AE472541AE472D413D0A2F418FC23557
:10EF7E00413D0A2F41AE472D41AE472D41AE472DA3
:10EF8E0041AE472541AE472541AE4725415C8F3204
:10EF9E0041AE4729419A993141AE4729415C8F32A2
:10EFAE00415C8F32415C8F3241AE472541AE4725E1
:10EFBE0041AE472541AE47354185EB2541EC512CFD
:10EFCE00417B1422410000384100003841000038D6
:10EFDE0041AE472541AE472541AE47254100003899
:10EFEE00417B14224185EB2541E17A1841AE473D24
:10EFFE0041AE473D41AE473D41AE472541AE472567
:10F00E0041AE472541000038417B14224185EB2556
:10F01E0041E17A1841AE473D41AE473D415C8F3AE2
:10F02E0041AE472541AE472541AE472541AE473556
:10F03E004185EB2541AE4729419A991D415C8F3A96
:10F04E00415C8F3A4100003841AE472541AE47251D
:10F05E0041AE472541AE47354185EB2541EC512C5C
:10F06E00417B1422410000384100003841AE473543
:10F07E0041AE472541AE472541AE4725415C8F3213
:10F08E0041AE4729413D0A2F4185EB2541AE47351B
:10F09E0041AE4735415C8F3241AE472541AE4725E3
:10F0AE0041AE4725415C8F3241AE4729419A993195
:10F0BE0041AE4729415C8F32415C8F32415C8F32C9
:10F0CE00410000284100002841000028415C8F3299
:10F0DE0041AE4729419A993141AE4729415C8F3261
:10F0EE00415C8F32415C8F32410000284100002884
:10F0FE0041000028415C8F3241AE47294114AE33A6
:10F10E0041EC512C41000030415C8F32415C8F321A
:10F11E00415C8F2A415C8F2A415C8F2A410000306E
:10F12E0041EC512C4114AE3341EC512C41000030D6
:10F13E004100003041000030415C8F2A415C8F2A33
:10F14E00415C8F2A4100003041EC512C4114AE330A
:10F15E00413D0A2F41AE472D4100003041000030A5
:10F16E0041AE472D41AE472D41AE472D41AE472D05
:10F17E00413D0A2F4114AE33419A9931415C8F2A99
