:04000000F9EF00F024
:100008005E82FACF45F0FBCF46F0E9CF47F0EACF62
:1000180048F0E1CF49F0E2CF4AF0D9CF4BF0DACF40
:100028004CF0F3CF4DF0F4CF4EF0F6CF4FF0F7CFC2
:1000380050F0F8CF51F0F5CF52F05EC053F05FC0EA
:1000480054F060C055F061C056F0F2B4F2AA14D072
:10005800F294FB0E026E1E0E016E29EC17F00A0ECA
:100068005918D8A406D0010E0001E56F000E596E8C
:1000780001D0592A8C808C909EB69DA690D09D96D2
:100088009E96C950416E426AD8905734D96E5834FA
:10009800DA6ED00ED926000EDA2241C0DEFF42C049
:1000A800DDFFD8905734D96E5834DA6ED00ED92681
:1000B800000EDA22DECF41F0DDCF42F05C50412461
:1000C8005C6E5D5042205D6E574A582A8BB003D053
:1000D800416A412A01D0416A8B504118FE0B4118F0
:1000E8008B6E58BE05D0585006E15704D8B003D0DF
:1000F8009E969D8653D0000E586E000E576E5CC0BB
:10010800E2F05DC0E3F0D8905C365D36D8905C369E
:100118005D36000E136E000E146EB40E156E420E90
:10012800166E8B0E416EFF0E426E5CC043F05DC0D2
:1001380044F0415043264250442243C001F044C099
:1001480002F0036A046A000E5BEC14F001C00FF0C1
:1001580002C010F003C011F004C012F093EC0BF0D1
:100168000FC028F010C029F011C02AF012C02BF0DF
:10017800000E2C6E400E2D6E490E2E6E440E2F6E04
:1001880035EC10F028C0F0F029C0F1F02AC0F2F0E8
:100198002BC0F3F0000E5D6E000E5C6E9D8656C09F
:1001A80061F055C060F054C05FF053C05EF052C0BB
:1001B800F5FF51C0F8FF50C0F7FF4FC0F6FF4EC023
:1001C800F4FF4DC0F3FF4CC0DAFF4BC0D9FF4AC063
:1001D800E2FF49C0E1FF48C0EAFF47C0E9FF46C067
:0E01E800FBFF45C0FAFF5E92110003EF16F018
:10100000000AD7A33C00000041003EEC16F0F28E2F
:10101000F28CF28A9D86000E0001616F000E606FF7
:10102000B5EC16F0000E0001616F000E606F97ECDA
:1010300016F08A948A928986000E0001E36F200ED2
:10104000E26F200E5A6E000ED16F200ED06F000E90
:101050000001E46F040EE46501D01DD0050EC26EE0
:10106000C282C2B2FED7C4500001A56FA46BC350A8
:10107000A425DA6F000EA521DB6FE451020D000EEE
:10108000F324D96E010EF420DA6EDAC0DEFFDBC085
:10109000DDFFE42BDFD70101045102250001A46F1D
:1010A0000101055103210001A56F01010651000155
:1010B000A427010107510001A523010108510001E6
:1010C000A427010109510001A523010100510001DC
:1010D000A425E06F010101510001A521E16FE0C0ED
:1010E00060F0E1C061F0000E636F050E626F6DECA1
:1010F00016F060C0E0F061C0E1F0E0C0EAF0E1C0ED
:10110000EBF0000E0001E16F000EE06FEB5108E123
:10111000750EEA5DD8B004D0000EEB6F750EEA6F65
:101120009B0EEA5D030EEB59D8A004D0030EEB6FC3
:101130009A0EEA6F000E726F000E736FB40E746F2A
:10114000420E756F8B0EA46FFF0EA56FEAC0A6F05E
:10115000EBC0A7F0A451A627A551A723A6C060F015
:10116000A7C061F0626B636B000EB1EC13F060C05E
:101170006EF061C06FF062C070F063C071F0EAECB5
:1011800009F06EC087F06FC088F070C089F071C040
:101190008AF0000E00018B6F400E8C6F490E8D6F30
:1011A000440E8E6FDAEC0EF087C0ECF088C0EDF0E4
:1011B00089C0EEF08AC0EFF00001E551D8B447D7FE
:1011C000000EE56FF0C060F0F1C061F0F2C062F0B7
:1011D000F3C063F0000E646F000E656FB00E666FB3
:1011E000400E676F03EC15F00001D8A015D0ECC0DD
:1011F00060F0EDC061F0EEC062F0EFC063F0CD0EC4
:10120000646FCC0E656F9C0E666F400E676F03ECCB
:1012100015F00001D8B02AD0F0C060F0F1C061F044
:10122000F2C062F0F3C063F0000E646F000E656FF1
:10123000B00E666F400E676F03EC15F00001D8B07A
:1012400044D0ECC060F0EDC061F0EEC062F0EFC0E1
:1012500063F0000E646F000E656FB00E666F400E97
:10126000676F03EC15F00001D8A02FD0000E616F5E
:10127000000E606F97EC16F0A7EC12F0140E000150
:10128000726FAE0E736F230E746F410E756FACC02C
:101290006EF0ADC06FF0AEC070F0AFC071F0EAECB0
:1012A00009F06EC087F06FC088F070C089F071C01F
:1012B0008AF094EC15F087C0D4F088C0D5F0D4C083
:1012C00060F0D5C061F0B5EC16F0F0C060F0F1C090
:1012D00061F0F2C062F0F3C063F0000E0001646FD1
:1012E000000E656FB00E666F400E676F03EC15F071
:1012F0000001D8B015D0ECC060F0EDC061F0EEC0D8
:1013000062F0EFC063F0330E646F330E656FC30E8F
:10131000666F400E676F03EC15F00001D8A02AD06D
:10132000000E606F000E616FB00E626F400E636F53
:10133000F0C064F0F1C065F0F2C066F0F3C067F091
:1013400003EC15F00001D8B082D6ECC060F0EDC01F
:1013500061F0EEC062F0EFC063F0000E646F000E4B
:10136000656FB00E666F400E676F03EC15F00001FD
:10137000D8B06DD6000E616F000E606FB5EC16F040
:101380008FEC11F0140E0001726FAE0E736F230E0E
:10139000746F410E756FA8C06EF0A9C06FF0AAC03F
:1013A00070F0ABC071F0EAEC09F06EC087F06FC06E
:1013B00088F070C089F071C08AF094EC15F087C095
:1013C000D4F088C0D5F0D4C060F0D5C061F097ECFF
:1013D00016F03DD600017151800B7A6F7151712565
:1013E000806F70BF80818051D8B40DD08029D8A47F
:1013F00008D0000E6E6F000E6F6F000E706F000E43
:10140000716F708F08D0000E6E6F000E6F6F000E40
:10141000706F000E716F7551800B7A1B75517525B9
:101420007F6F74BF7F817F51D8B40DD07F29D8A43E
:1014300008D0000E726F000E736F000E746F000EF6
:10144000756F748F08D0000E726F000E736F000EF0
:10145000746F000E756F7F51D8B403D08051D8A43B
:1014600009D0000E6E6F000E6F6F000E706F000ED1
:10147000716F120074516E03F3CF85F0F4CF86F0D4
:1014800085517B6F7C6B7D6B7E6B8651816F826B30
:10149000836B846B73516F03F3CF85F0F4CF86F0C9
:1014A00085517B27000E7C237D237E238651812757
:1014B000000E82238323842372517003F3CF85F0BF
:1014C000F4CF86F085517B27000E7C237D237E237D
:1014D00086518127000E8223832384237DC07EF0E2
:1014E0007CC07DF07BC07CF07B6B72516F03F3CFCF
:1014F00085F0F4CF86F085517B2786517C23000E42
:101500007D23000E7E2373516E03F3CF85F0F4CF5D
:1015100086F085517B2786517C23000E7D23000EAB
:101520007E237DC07EF07CC07DF07BC07CF07B6B39
:1015300072516E03F3CF85F0F4CF86F085517B278F
:1015400086517C23000E7D23000E7E2374516F0391
:10155000F3CF85F0F4CF86F0855181278651822321
:10156000000E8323000E842373517003F3CF85F0A4
:10157000F4CF86F08551812786518223000E832384
:10158000000E842374517003F3CF85F0F4CF86F0FE
:101590008551766F8651776F786B796B78C079F06B
:1015A00077C078F076C077F0766B765181277751E7
:1015B000822378518323795184237BC076F07CC0C9
:1015C00077F07DC078F07EC079F0190E05D0D89004
:1015D0007933783377337633E82EF9D7765181270C
:1015E0007751822378518323795184237DC07EF003
:1015F0007CC07DF07BC07CF07B6B7F5180C076F03F
:10160000776B7627000E7723820E7625856FFF0E87
:101610007721866F0FD0D890813782378337843710
:101620007EBF8181D8907B377C377D377E378507B9
:10163000D8A0860783AFEFD7000E7F6F7EAF16D09E
:10164000FF0E7B15766FFF0E7C15776FFF0E7D15F5
:10165000786F7F0E7E15796F765177117811791139
:10166000D8A402D081A102D0010E7F6F7F51D8B4DF
:101670001FD0010E8127000E82238323842384A19F
:1016800017D081C076F082C077F083C078F084C034
:1016900079F07935793378337733763376C081F0E2
:1016A00077C082F078C083F079C084F0854B862BB8
:1016B00086BF0DD0865103E18529D8A008D0000E41
:1016C000816F000E826F800E836F7F0E20D086BFE9
:1016D00005D086510EE18505D8B00BD0000E816F84
:1016E000000E826F000E836F000E846F000E7A6F03
:1016F0000FD085C080F0FF0E8117FF0E82177F0E7E
:101700008317000E841780B1838FD8908031846F47
:101710007A51841381C06EF082C06FF083C070F084
:1017200084C071F012001250800B1B6E12501224F4
:10173000216E11BE21802150D8B40DD02128D8A40B
:1017400008D0000E0F6E000E106E000E116E000E0F
:10175000126E118E08D0000E0F6E000E106E000E6D
:10176000116E000E126E1650800B1B1A16501624A6
:10177000206E15BE20802050D8B40DD02028D8A4CB
:1017800008D0000E136E000E146E000E156E000EC3
:10179000166E158E08D0000E136E000E146E000E1D
:1017A000156E000E166E2050D8B403D02150D8A468
:1017B00009D0000E0F6E000E106E000E116E000E9E
:1017C000126E120015500F02F3CF26F0F4CF27F05F
:1017D00026501C6E1D6A1E6A1F6A2750226E236ADD
:1017E000246A256A14501002F3CF26F0F4CF27F0B4
:1017F00026501C26000E1D221E221F2227502226A4
:10180000000E23222422252213501102F3CF26F0AA
:10181000F4CF27F026501C26000E1D221E221F2268
:1018200027502226000E2322242225221EC01FF02C
:101830001DC01EF01CC01DF01C6A13501002F3CF17
:1018400026F0F4CF27F026501C2627501D22000E2C
:101850001E22000E1F2214500F02F3CF26F0F4CFE9
:1018600027F026501C2627501D22000E1E22000E97
:101870001F221EC01FF01DC01EF01CC01DF01C6AE0
:1018800013500F02F3CF26F0F4CF27F026501C267A
:1018900027501D22000E1E22000E1F22155010027E
:1018A000F3CF26F0F4CF27F026502226275023220C
:1018B000000E2422000E252214501102F3CF26F030
:1018C000F4CF27F02650222627502322000E242270
:1018D000000E252215501102F3CF26F0F4CF27F089
:1018E0002650176E2750186E196A1A6A19C01AF016
:1018F00018C019F017C018F0176A17502226185090
:101900002322195024221A5025221CC017F01DC072
:1019100018F01EC019F01FC01AF0190E05D0D8908B
:101920001A32193218321732E82EF9D717502226F8
:1019300018502322195024221A5025221EC01FF0AD
:101940001DC01EF01CC01DF01C6A205021C017F0E5
:10195000186A1726000E1822820E1724266EFF0E14
:101960001820276E0FD0D8902236233624362536FD
:101970001FBE2280D8901C361D361E361F36260606
:10198000D8A0270624AEEFD7000E206E1FAE16D0CB
:10199000FF0E1C14176EFF0E1D14186EFF0E1E1482
:1019A000196E7F0E1F141A6E1750181019101A1086
:1019B000D8A402D022A002D0010E206E2050D8B4AC
:1019C0001FD0010E2226000E23222422252225A02C
:1019D00017D022C017F023C018F024C019F025C07A
:1019E0001AF01A341A3219321832173217C022F08C
:1019F00018C023F019C024F01AC025F0264A272A5F
:101A000027BE0DD0275003E12628D8A008D0000E0D
:101A1000226E000E236E800E246E7F0E20D027BE15
:101A200005D027500EE12604D8B00BD0000E226E50
:101A3000000E236E000E246E000E256E000E1B6E2F
:101A40000FD026C021F0FF0E2216FF0E23167F0EA8
:101A50002416000E251621B0248ED8902130256E34
:101A60001B50251222C00FF023C010F024C011F02B
:101A700025C012F0120000018E51800B9B6F8E5119
:101A80008E259D6F8DBF9D819D51D8B40DD09D2910
:101A9000D8A408D0000E8B6F000E8C6F000E8D6FD7
:101AA000000E8E6F8D8F06D0000E8B6F000E8C6F28
:101AB000000E8D6F000E8E6F9251800B9C6F9B51AC
:101AC0009C19D8A49B8D925192259C6F91BF9C81AB
:101AD0009C51D8B40DD09C29D8A408D0000E8F6F8B
:101AE000000E906F000E916F000E926F918F06D0D6
:101AF000000E8F6F000E906F000E916F000E926FB0
:101B00009D519C5DD8B022D09BAD02D0800E9B1B16
:101B10009DC09EF09CC09DF09EC09CF08BC09EF02E
:101B20008FC08BF09EC08FF08CC09EF090C08CF068
:101B30009EC090F08DC09EF091C08DF09EC091F03F
:101B40008EC09EF092C08EF09EC092F0000E9E6FEE
:101B50009D51936F946B931F941F934B942B9C51A7
:101B6000956F966B935195279451962396BF2CD0E1
:101B7000965104E11A0E955DD8A026D08B518C1198
:101B80008D118E11D8B402D0010E01D0000E9E6FBF
:101B9000000E8B6F000E8C6F000E8D6F000E8E6F1F
:101BA0009CC09DF015D09EA105D0D8909E31010912
:101BB0009E6F02D0D8909E338BB19E8F8E358E3320
:101BC0008D338C338B339D2B9C519D5DD8A0EBD7EF
:101BD0009BBD29D09D51D8A409D0000E8B6F000E5B
:101BE0008C6F000E8D6F000E8E6F12008F518B2741
:101BF00090518C2391518D2392518E238EA183D0AD
:101C00009EA106D0D8909E339E5101099E6F02D0AE
:101C1000D8909E338BB19E8F8E358E338D338C331F
:101C20008B339D2B70D08F518B5D90518C5991517E
:101C30008D598E51800A936F9251800A9359D8B072
:101C400036D08BC093F08CC094F08DC095F08EC0D0
:101C500096F0931F941F951F961F932B000E9423AD
:101C6000952396238F519325976F90519421986FC8
:101C700091519521996F925196219A6FFF0E972558
:101C80008B6FFF0E98218C6FFF0E99218D6FFF0EC9
:101C90009A218E6F800E9B1B9E6D9E51D8A40FD0F3
:101CA000010E8B27000E8C238D238E2308D08F519D
:101CB0008B5F90518C5B91518D5B92518E5B8B5100
:101CC0008C118D118E11D8A41CD09E51D8A419D07E
:101CD000000E8B6F000E8C6F000E8D6F000E8E6FDE
:101CE0001200D8908B378C378D378E379EBF8B8103
:101CF0009EA102D0D88001D0D8909E379D51D8A403
:101D00009D078DAFEED7000E9C6F9EAF0AD09EC090
:101D100093F07F0E9317D8A402D08BA102D0010EAE
:101D20009C6F9C51D8B420D0010E8B27000E8C23C1
:101D30008D238E238EA118D08BC093F08CC094F08D
:101D40008DC095F08EC096F09635963395339433CA
:101D5000933393C08BF094C08CF095C08DF096C0F7
:101D60008EF09D29D8A49D2B9D29D8B403D09D51D8
:101D7000D8A40DD0000E8B6F000E8C6F000E8D6FEF
:101D8000000E8E6F9D51D8A402D0000E9B6F9DA1B6
:101D900002D08D8F01D08D9FD8909D318E6F9BBFCB
:101DA0008E8F8BC08BF08CC08CF08DC08DF08EC070
:101DB0008EF0120000018A51800B936F8A518A25A0
:101DC0009E6F89BF9E819E51D8B40DD09E29D8A404
:101DD00008D0000E876F000E886F000E896F000E0E
:101DE0008A6F898F06D0000E876F000E886F000EF5
:101DF000896F000E8A6F8E51800B931B8E518E253A
:101E00009F6F8DBF9F819F51D8B40DD09F29D8A4BB
:101E100008D0000E8B6F000E8C6F000E8D6F000EC1
:101E20008E6F8D8F06D0000E8B6F000E8C6F000EA4
:101E30008D6F000E8E6F8B518C118D118E11D8A469
:101E400015D0000E876F000E886F000E896F000E90
:101E50008A6F800E89137F0E8A1387C087F088C02F
:101E600088F089C089F08AC08AF012009E51D8A4F7
:101E700011D0000E876F000E886F000E896F000E64
:101E80008A6F87C087F088C088F089C089F08AC0CF
:101E90008AF012009F518F6F906B8F1F901F8F4B96
:101EA000902B9E51916F926B8F519127905192235D
:101EB0007F0E9125986F000E9221996F87C094F044
:101EC00088C095F089C096F08AC097F0000E876FA1
:101ED000000E886F000E896F000E8A6F000E9A6FD9
:101EE000000E9B6F000E9C6F000E9D6F000E9F6F8B
:101EF00028D09F51D8B411D0D890943795379637C1
:101F00009737D8908737883789378A379DBF878139
:101F1000D8909A379B379C379D378B51945D8C5165
:101F200095598D5196598E519759D8A009D09D8DAC
:101F30008B51945F8C51955B8D51965B8E51975B65
:101F40009F2B190E9F65D5D7945195119611971116
:101F5000D8B411D09A810FD0D89087378837893775
:101F60008A379DBF8781D8909A379B379C379D379A
:101F70009807D8A0990789AFEFD7000E9F6F9DAF44
:101F800016D0FF0E9A158F6FFF0E9B15906FFF0EE8
:101F90009C15916F7F0E9D15926F8F51901191112D
:101FA0009211D8A402D087A102D0010E9F6F9F5139
:101FB000D8B41FD0010E8727000E882389238A23D7
:101FC0008AA117D087C08FF088C090F089C091F0A7
:101FD0008AC092F092359233913390338F338FC011
:101FE00087F090C088F091C089F092C08AF0984B39
:101FF000992B99BF10D0995103E19829D8A00BD003
:10200000000E996F9869000E876F000E886F000EA2
:10201000896F000E8A6F99BF05D0995111E198051B
:10202000D8B00ED0000E996F000E986F000E876F1B
:10203000000E886F000E896F000E8A6F000E936F7E
:1020400098C09EF09EA102D0898F01D0899FD89020
:102050009E318A6F93518A1387C087F088C088F0B9
:1020600089C089F08AC08AF012002B50800B346E30
:102070002B502B243F6E2ABE3F803F50D8B40DD04A
:102080003F28D8A408D0000E286E000E296E000E3E
:102090002A6E000E2B6E2A8E06D0000E286E000EC1
:1020A000296E000E2A6E000E2B6E2F50800B341AF4
:1020B0002F502F24406E2EBE40804050D8B40DD0FB
:1020C0004028D8A408D0000E2C6E000E2D6E000EF5
:1020D0002E6E000E2F6E2E8E06D0000E2C6E000E71
:1020E0002D6E000E2E6E000E2F6E2C502D102E1009
:1020F0002F10D8A415D0000E286E000E296E000EE9
:102100002A6E000E2B6E800E2A127F0E2B1228C014
:1021100028F029C029F02AC02AF02BC02BF0120089
:102120003F50D8A411D0000E286E000E296E000E6C
:102130002A6E000E2B6E28C028F029C029F02AC074
:102140002AF02BC02BF012004050306E316A301E46
:10215000311E304A312A3F50326E336A30503226B7
:10216000315033227F0E3224396E000E33203A6E06
:1021700028C035F029C036F02AC037F02BC038F01F
:10218000000E286E000E296E000E2A6E000E2B6EB9
:10219000000E3B6E000E3C6E000E3D6E000E3E6E5D
:1021A000000E406E28D04050D8B411D0D8903536AB
:1021B000363637363836D890283629362A362B36F2
:1021C0003EBE2880D8903B363C363D363E362C50BD
:1021D000355C2D5036582E5037582F503858D8A0CF
:1021E00009D03E8C2C50355E2D50365A2E50375A21
:1021F0002F50385A402A190E4064D5D73550361022
:1022000037103810D8B411D03B800FD0D890283672
:1022100029362A362B363EBE2880D8903B363C36AF
:102220003D363E363906D8A03A062AAEEFD7000E24
:10223000406E3EAE16D0FF0E3B14306EFF0E3C14C7
:10224000316EFF0E3D14326E7F0E3E14336E3050F1
:10225000311032103310D8A402D028A002D0010EC1
:10226000406E4050D8B41FD0010E2826000E2922FF
:102270002A222B222BA017D028C030F029C031F001
:102280002AC032F02BC033F03334333232323132A1
:10229000303230C028F031C029F032C02AF033C0CB
:1022A0002BF0394A3A2A3ABE10D03A5003E1392885
:1022B000D8A00BD0000E3A6E3968000E286E000EC2
:1022C000296E000E2A6E000E2B6E3ABE05D03A50D3
:1022D00011E13904D8B00ED0000E3A6E000E396EFE
:1022E000000E286E000E296E000E2A6E000E2B6E58
:1022F000000E346E39C03FF03FA002D02A8E01D0CC
:102300002A9ED8903F302B6E34502B1228C028F0D4
:1023100029C029F02AC02AF02BC02BF01200000E91
:102320000001726F000E736F800E746F3F0E756F39
:10233000F0C06EF0F1C06FF0F2C070F0F3C071F059
:10234000EAEC09F06EC08BF06FC08CF070C08DF0BD
:1023500071C08EF0000E0001726F000E736F800E60
:10236000746F3F0E756FECC06EF0EDC06FF0EEC095
:1023700070F0EFC071F0EAEC09F06EC087F06FC04A
:1023800088F070C089F071C08AF0CEEC16F087C07A
:102390008FF088C090F089C091F08AC092F03BEC39
:1023A0000DF08BC0E6F08CC0E7F08DC0E8F08EC079
:1023B000E9F0E6C06EF0E7C06FF0E8C070F0E9C089
:1023C00071F0000E0001726F000E736F800E746F5B
:1023D000BF0E756FEAEC09F06EC0E6F06FC0E7F073
:1023E00070C0E8F071C0E9F02CC172F02DC173F03B
:1023F0002EC174F02FC175F0C0C08FF0C1C090F035
:10240000C2C091F0C3C092F0E6C08BF0E7C08CF080
:10241000E8C08DF0E9C08EF03BEC0DF08BC06EF0A3
:102420008CC06FF08DC070F08EC071F0EAEC09F0D6
:102430006EC09FF06FC0A0F070C0A1F071C0A2F09C
:102440009FC08BF0A0C08CF0A1C08DF0A2C08EF018
:1024500018C18FF019C190F01AC191F01BC192F010
:102460003BEC0DF08BC0B4F08CC0B5F08DC0B6F075
:102470008EC0B7F0F8C06EF0F9C06FF0FAC070F01F
:10248000FBC071F0E6C072F0E7C073F0E8C074F012
:10249000E9C075F0EAEC09F06EC014F16FC015F1F7
:1024A00070C016F171C017F1B4C08BF0B5C08CF0DC
:1024B000B6C08DF0B7C08EF014C18FF015C190F08A
:1024C00016C191F017C192F03BEC0DF08BC0A8F053
:1024D0008CC0A9F08DC0AAF08EC0ABF0E6C0C0F0F1
:1024E000E7C0C1F0E8C0C2F0E9C0C3F0B4C018F161
:1024F000B5C019F1B6C01AF1B7C01BF1000E00014A
:10250000606F000E616FC80E626F420E636FA8C0ED
:1025100064F0A9C065F0AAC066F0ABC067F003EC38
:1025200015F00001D8B008D0000EA86F000EA96FFA
:10253000C80EAA6F420EAB6FABAF1200000EA86FB1
:10254000000EA96F000EAA6F000EAB6F1200000EF6
:102550000001726F000E736F800E746F3F0E756F07
:10256000F0C06EF0F1C06FF0F2C070F0F3C071F027
:10257000EAEC09F06EC08BF06FC08CF070C08DF08B
:1025800071C08EF0000E0001726F000E736F800E2E
:10259000746F3F0E756FECC06EF0EDC06FF0EEC063
:1025A00070F0EFC071F0EAEC09F06EC087F06FC018
:1025B00088F070C089F071C08AF0CEEC16F087C048
:1025C0008FF088C090F089C091F08AC092F03BEC07
:1025D0000DF08BC0B0F08CC0B1F08DC0B2F08EC0E9
:1025E000B3F08BB004D000019F6B9F2B02D0000191
:1025F0009F6B8B509F19FE0B9F198B6E30C172F031
:1026000031C173F032C174F033C175F0C4C08FF0C2
:10261000C5C090F0C6C091F0C7C092F0B0C08BF0BA
:10262000B1C08CF0B2C08DF0B3C08EF03BEC0DF0B9
:102630008BC06EF08CC06FF08DC070F08EC071F0EA
:10264000EAEC09F06EC0A0F06FC0A1F070C0A2F07B
:1026500071C0A3F0A0C08BF0A1C08CF0A2C08DF01F
:10266000A3C08EF0B8C08FF0B9C090F0BAC091F09E
:10267000BBC092F03BEC0DF08BC0BCF08CC0BDF049
:102680008DC0BEF08EC0BFF0F4C06EF0F5C06FF02C
:10269000F6C070F0F7C071F0B0C072F0B1C073F066
:1026A000B2C074F0B3C075F0EAEC09F06EC01CF172
:1026B0006FC01DF170C01EF171C01FF1BCC08BF066
:1026C000BDC08CF0BEC08DF0BFC08EF01CC18FF0BD
:1026D0001DC190F01EC191F01FC192F03BEC0DF0B6
:1026E0008BC0ACF08CC0ADF08DC0AEF08EC0AFF042
:1026F000B0C0C4F0B1C0C5F0B2C0C6F0B3C0C7F03E
:10270000BCC0B8F0BDC0B9F0BEC0BAF0BFC0BBF02D
:10271000000E0001606F000E616FFA0E626F430ED3
:10272000636FACC064F0ADC065F0AEC066F0AFC022
:1027300067F003EC15F00001D8B008D0000EAC6FC4
:10274000000EAD6FFA0EAE6F430EAF6FAFAF12005B
:10275000000EAC6F000EAD6F000EAE6F000EAF6FCF
:1027600012000001686F00016851D8A463AF1AD04D
:1027700060C064F061C065F062C066F063C067F07D
:10278000641F651F661F671F642B000E6523662389
:10279000672364C06AF065C06BF066C06CF067C008
:1027A0006DF008D060C06AF061C06BF062C06CF080
:1027B00063C06DF06051611162116311D8A409D03A
:1027C000000E606F000E616F000E626F000E636F8F
:1027D0001200960E696F06D0692BD8906D336C335A
:1027E0006B336A33000E6A15646F000E6B15656FEC
:1027F000000E6C15666FFE0E6D15676F64516511E6
:1028000066116711D8B40DD0E7D7692B010E6A277E
:10281000000E6B236C236D23D8906D336C336B33B8
:102820006A33000E6A15646F000E6B15656F000E3B
:102830006C15666FFF0E6D15676F6451651166113B
:102840006711D8B407D0E1D76907D8906A376B37DA
:102850006C376D376CBF03D0020E6961F5D769B173
:1028600008D0FF0E6A17FF0E6B177F0E6C17FF0E56
:102870006D17D890693369C064F0656B666B676BE0
:1028800064C067F0666B656B646B64516A13655175
:102890006B1366516C1367516D136851D8A463AF05
:1028A00001D06D8F6AC060F06BC061F06CC062F0E7
:1028B0006DC063F01200096E0950D8A404AE1AD09E
:1028C00001C005F002C006F003C007F004C008F024
:1028D000051E061E071E081E052A000E06220722D8
:1028E000082205C00BF006C00CF007C00DF008C0B0
:1028F0000EF008D001C00BF002C00CF003C00DF0C8
:1029000004C00EF00150021003100410D8A409D026
:10291000000E016E000E026E000E036E000E046EBD
:102920001200960E0A6E06D00A2AD8900E320D3288
:102930000C320B32000E0B14056E000E0C14066EDA
:10294000000E0D14076EFE0E0E14086E05500610D4
:1029500007100810D8B40DD0E7D70A2A010E0B26AD
:10296000000E0C220D220E22D8900E320D320C32A7
:102970000B32000E0B14056E000E0C14066E000ECA
:102980000D14076EFF0E0E14086E0550061007108A
:102990000810D8B407D0E1D70A06D8900B360C3609
:1029A0000D360E360DBE03D0020E0A60F5D70AB002
:1029B00008D0FF0E0B16FF0E0C167F0E0D16FF0E25
:1029C0000E16D8900A320AC005F0066A076A086A2D
:1029D00005C008F0076A066A056A05500B12065022
:1029E0000C1207500D1208500E120950D8A404AE54
:1029F00001D00E8E0BC001F00CC002F00DC003F030
:102A00000EC004F01200000E00016015686F000E89
:102A10006115696F800E62156A6F7F0E63156B6FAB
:102A2000685169116A116B11D8A408D0000E606F4B
:102A3000000E616F000E626F000E636F000E641572
:102A4000686F000E6515696F800E66156A6F7F0EE0
:102A500067156B6F685169116A116B11D8A408D0A2
:102A6000000E646F000E656F000E666F000E676FDC
:102A700063AF1DD060C068F061C069F062C06AF0E9
:102A800063C06BF0681F691F6A1F6B1F682B000E05
:102A900069236A236B23000E6825606F000E69218D
:102AA000616F000E6A21626F800E6B21636F67AFEA
:102AB0001DD064C068F065C069F066C06AF067C088
:102AC0006BF0681F691F6A1F6B1F682B000E69235C
:102AD0006A236B23000E6825646F000E6921656F01
:102AE000000E6A21666F800E6B21676F000E601BFF
:102AF000000E611B000E621B800E631B000E641B28
:102B0000000E651B000E661B800E671B6451605D26
:102B1000655161596651625967516359D8B002D005
:102B2000D8901200D8801200000189358A35906F44
:102B30009051D8A409D0000E876F000E886F000E48
:102B4000896F000E8A6F120087C08BF088C08CF0EE
:102B500089C08DF08AC08EF0200E05D0D8908E33BB
:102B60008D338C338B33E82EF9D78B518F6F898F50
:102B7000FF0E8717FF0E8817FF0E8917000E8A17A2
:102B8000960E905F90AF16D09051800A970FD8B0F4
:102B900009D0000E876F000E886F000E896F000E3F
:102BA0008A6F1200D8908A33893388338733903FF5
:102BB000F9D715D01F0E90650FD0000E876F000E4D
:102BC000886F000E896F000E8A6F1200D8908737C9
:102BD000883789378A3790079051D8A4F7D78F5113
:102BE000D8B408D08A1F891F881F876D000E8823DC
:102BF00089238A2387C087F088C088F089C089F03C
:102C00008AC08AF012005C0EF66E2E0EF76E000E71
:102C1000F86E01EE2CF010EE08F00900F5CFEEFF93
:102C2000E550E150FAE10C0EF66E2E0EF76E000E36
:102C3000F86E00EEECF010EE12F00900F5CFEEFFAA
:102C4000E550E150FAE101EE00F02C0EEE6AE806E4
:102C5000FDE100EEA8F0440EEE6AE806FDE100EEAC
:102C600057F0070EEE6AE806FDE15E905E92000EF8
:102C7000F86E100EF76E000105EF08F0030E0F015D
:102C8000386F000E396F000E3A6F000E3B6F000E6A
:102C90003C6FF70E926E110E936E000E946E000E46
:102CA000956E000E966E0D0E0001606FFB0EE82E05
:102CB000FED7602FFCD700D00FEC17F0050EC26EC8
:102CC000000EC16EA50EC06EF6EC16F0E6EC16F026
:102CD00018EC17F021EC17F01200000E0001656FE0
:102CE000000E646F62516311D8B41CD0010E666F80
:102CF00004D0D89062376337662B63AFFAD7D89089
:102D0000643765376251605D63516159D8A005D061
:102D10006251605F6351615B6481D8906333623359
:102D2000662FEDD764C060F065C061F0120060C02E
:102D300062F061C063F00001D89063336233D890D1
:102D40006333623362510F015E6F60C062F0030E45
:102D500000016217623BF00E62170F015D51CF0B4D
:102D6000000162110F015D6F120060C062F061C06E
:102D700063F00001D89063336233D89063336233D9
:102D80006251676E60C062F0030E6217623BF00E24
:102D900062176650CF0B6211666E120000018751F8
:102DA000881189118A11D8B408D0000E871B000E33
:102DB000881B000E891B800E8A1B87C087F088C085
:102DC00088F089C089F08AC08AF012001C0E0F01B9
:102DD0005D6F0C0E5E6F000E5F6F4A0EBB6E5B9FE9
:102DE0005B995B9B5B9D499D499F12001C0E666E23
:102DF0000C0E676E000E686EFA0EBB6E649E6498D1
:102E0000649A649C0F014997499912000000C040E0
:102E10000000C04048E11A3F000060400100340E4D
:102E2000C66E400EC76E928A94869488949A120059
:102E3000D590D582D594D59CD596D598D59AD58E52
:102E40001200BA86BA88BA8ABA8CBA80BA82BA84B0
:102E500012000250D76E01C0D6FF1200EC51383E6E
:042E60008907943C0E
:020000040020DA
:08000000FFFFFFFFFFFFFFFF00
:020000040030CA
:0E000000FF321F3FFFBE81FF0FC00FE00F4019
:00000001FF
