:04000000B6EF00F067
:060008004582B8EF00F094
:100018004580D8CFB0F0E8CFB1F0E0CFB2F0FACF5A
:10002800B3F0FBCFB4F0E9CFB5F0EACFB6F0E1CF4B
:10003800B7F0E2CFB8F0D9CFB9F0DACFBAF0F3CF52
:10004800BBF0F4CFBCF0F6CFBDF0F7CFBEF0F8CFE1
:10005800BFF0F5CFC0F045C0C1F046C0C2F047C000
:10006800C3F048C0C4F09EB09DA050D09D909E9013
:10007800000E106E000E0F6E000E0001916F000E44
:10008800906F000E8F6F000E8E6FFF0E786FFF0E51
:10009800796F000E7A6F000E7B6FFA0E7C6FFF0E81
:1000A8007D6F000E7E6F000E7F6F000E266E256836
:1000B80094519511D8B41AD081B205D0000EC66FEC
:1000C8007F0EC56F0ED009C0AEF00AC0AFF0D89051
:1000D800AE37AF37D890AE37AF37AEC0C5F0AFC088
:1000E800C6F0000E956F000E946F09D0C551C61169
:1000F800D8A402D08A9803D0C507D8A0C607000E96
:10010800AD6F000EAC6F85EC07F09D80C4C048F061
:10011800C3C047F0C2C046F0C1C045F0C0C0F5FF3B
:10012800BFC0F8FFBEC0F7FFBDC0F6FFBCC0F4FFFC
:10013800BBC0F3FFBAC0DAFFB9C0D9FFB8C0E2FF4D
:10014800B7C0E1FFB6C0EAFFB5C0E9FFB4C0FBFF26
:10015800B3C0FAFFB2C0E0FFB1C0E8FFB0C0D8FF3B
:1001680045901000EDEF06F0FACF33F0FBCF34F0F6
:10017800E9CF35F0EACF36F0E1CF37F0E2CF38F00B
:10018800D9CF39F0DACF3AF0F3CF3BF0F4CF3CF0E7
:10019800F6CF3DF0F7CF3EF0F8CF3FF0F5CF40F087
:1001A80045C041F046C042F047C043F048C044F063
:1001B8009EB69DA624D09D969E96C69CC950316E2B
:1001C800326AD89000019235D96E9335DA6E600E96
:1001D800D926000EDA2231C0DEFF32C0DDFF924B95
:1001E800932B93BF06D093510AE10C0E925DD8B0C1
:1001F80006D09E969D86000E836F010E826FF2B226
:10020800F2A888D0F298F29225282610D8B40BD0FC
:100218008D909D902AEC07F028C07CF029C07DF0D5
:1002280000017E6B7F6B00017C51785D7D517959AF
:100238007E517A597B51800A316E7F51800A31583C
:10024800D8A026BE40D0265004E1330E255CD8A0A5
:100258003AD08A8E000E8F6F010E8E6F000E266EBA
:10026800000E256E000E936F000E926F9E9687BF4C
:1002780006D0875111E10F0E865DD8B00DD085519B
:1002880004E1500E845DD8A007D0140E276006D074
:1002980089888A84272A02D089988A949D86000EA4
:1002A800A36F000EA26FA2C0A4F0A3C0A5F0A4C0C3
:1002B800A6F0A5C0A7F0A6C0A8F0A7C0A9F0A8C03E
:1002C800AAF0A9C0ABF0D8907C357C6F7D357D6FE6
:1002D8007E357E6F7F357F6F7CC078F07DC079F08A
:1002E8007EC07AF07FC07BF09CEC03F0000E296E94
:1002F800000E286E8BEC07F09E909D80020E25184C
:100308002610D8B48A9E000E0001A36F010EA26FBA
:10031800F292F2889EB29DA276D09D929E920001A2
:10032800A051A111D8B443D05DD08C9A8B928C98EF
:100338008B90000E246E000E236E000E0001A16F3C
:10034800000E1AD012BE2ED0125004E1020E115C1B
:10035800D8A028D08B8211C0BBFF000E296E000EDA
:10036800286E9EEC07F01BD0000E246E010E236E43
:10037800000E0001A16F010EA06F2ED012BE12D088
:10038800125004E1020E115CD8A00CD08B8011C071
:10039800BBFF000E296E000E286E9EEC07F09E92A1
:1003A8009D82E2D7000E246E000E236E15D023C066
:1003B80031F024C032F03250000AD8A40DD03150A8
:1003C800000AD8B409D0010AD8B4AFD70F0AD8B4F4
:1003D800D5D7190AD8B4B6D7000E0001A76F010EF9
:1003E800A66F11D0000E296E000E286E9EEC07F045
:1003F800000E0001A16F000EA06F000E246E010E0A
:10040800236E9E929D82A1B2A0A2B6D0A092A19284
:1004180096D004BE8FD004500310021004E1150ECC
:10042800015CD8A087D010BE06D0105009E1060E96
:100438000F5CD8B005D08C848C868C808C8204D0DC
:100448008C868C948C908C9201C028F002C029F084
:1004580090EC07F0A192A082000E00019F6F140E8D
:1004680027D004BE67D004500310021004E1150E13
:10047800015CD8A05FD010BE06D0105009E1060E6E
:100488000F5CD8B005D08C848C868C808C8204D08C
:100498008C808C948C968C9201C028F002C029F034
:1004A80090EC07F0A192A082000E00019F6F1E0E33
:1004B8009E6F5DD08C948C968C908C9210BE3AD0A6
:1004C800105004E1060E0F5CD8A034D00EBE32D016
:1004D8000E502AE1060E0D5CD8A02CD025D0010EB6
:1004E8001D6E1E6A27D08C948C968C908C9210BEB0
:1004F80021D0105004E1060E0F5CD8A01BD00EBE10
:1005080019D00E5004E1060E0D5CD8A013D01D5072
:100518001E10D8A402D0010E01D0000E1D6E1E6A56
:100528000B500C10D8A406D01D501E10D8B4D7D725
:10053800000ED6D7000E00019F6F000EB9D79EC0DF
:1005480031F09FC032F03250000AD8A410D0315098
:10055800000AD8B40CD0020AD8B45BD7010AD8B4C0
:1005680080D7170AD8B4A6D70A0AD8B4BCD7000EC1
:100578000001A56F010EA46FF2B4F2AAB3D0F29AEB
:10058800F29493D004BE8DD004500310021004E1FD
:10059800150E015CD8A085D010BE06D0105009E118
:1005A800060E0F5CD8B005D08C848C868C808C822B
:1005B80004D08C848C968C908C9201C028F002C058
:1005C80029F095EC07F0F294F28A000E226E0A0EDA
:1005D80026D004BE66D004500310021004E1150EA4
:1005E800015CD8A05ED010BE06D0105009E1060EFE
:1005F8000F5CD8B005D08C848C868C808C8204D01B
:100608008C828C948C968C9001C028F002C029F0C2
:1006180095EC07F0F294F28A000E226E280E216EF5
:100628005CD08C948C968C908C9210BE3AD01050E2
:1006380004E1060E0F5CD8A034D00EBE32D00E50A6
:1006480004E1060E0D5CD8A02CD01F502010D8A4B1
:1006580002D0010E01D0000E1F6E206A0B500C1044
:10066800D8A41FD018D0010E1F6E206A1AD08C94FF
:100678008C968C908C9210BE14D0105004E1060E0B
:100688000F5CD8A00ED00EBE0CD00E5004E1060EA2
:100698000D5CD8A006D01F502010D8B4E4D7000EA7
:1006A800E3D7000E226E000EBAD721C031F022C067
:1006B80032F03250000AD8A410D03150000AD8B411
:1006C8000CD0010AD8B45ED7050AD8B482D70E0A6E
:1006D800D8B4A7D7220AD8B4CAD7000E0001A96F88
:1006E800010EA86F44C048F043C047F042C046F02E
:1006F80041C045F040C0F5FF3FC0F8FF3EC0F7FFDE
:100708003DC0F6FF3CC0F4FF3BC0F3FF3AC0DAFF40
:1007180039C0D9FF38C0E2FF37C0E1FF36C0EAFF71
:1007280035C0E9FF34C0FBFF33C0FAFF4592110022
:10073800254A262A00018E518F11D8B41200030EC3
:1007480025182610D8A40AD084A404D0000E0C6E54
:10075800010E03D0000E0C6E000E0B6E1E0E251837
:100768002610D8A417D217C09AF018C09BF019C049
:100778009CF01AC09DF015C098F016C099F013C0EF
:1007880096F014C097F00FC00DF010C00EF0000ED8
:10079800186E190E176E60C017F061C018F018BEF9
:1007A8000DD0185003E11704D8A008D018BE0DD0FA
:1007B800185004E13B0E175CD8A007D0000E186E45
:1007C8001768000E1A6E196812D01E0E1724196EBB
:1007D800000E18201A6E1ABE0AD01A5004E13D0EF7
:1007E800195CD8A004D0C40E1926FF0E1A2264C0C2
:1007F80015F065C016F016BE0DD0165003E11504AD
:10080800D8A008D016BE1AD0165004E13B0E155CCD
:10081800D8A014D0C80E15181610D8A404D0000EED
:100828008D6F010E03D0000E8D6F000E8C6F000EC1
:10083800166E1568000E146E136816D01E0E152459
:10084800136E000E1620146E14BE0AD0145004E164
:100858003D0E135CD8A004D0C40E1326FF0E14223C
:10086800000E8D6F000E8C6F82518311D8B464D046
:1008780062C01BF063C01CF068C028F066513AECF7
:1008880007F028502D6E29502E6E2F6A306A2D1EC3
:100898002E1E2F1E301E2D2A000E2E222F22302211
:1008A800FF0E2D24056EFF0E2E20066E000E2F2043
:1008B800076E000E3020086E6AC011F06BC012F08F
:1008C8006EC028F000016C513AEC07F028502D6EEC
:1008D80029502E6E2F6A306A2D1E2E1E2F1E301E96
:1008E8002D2A000E2E222F223022FF0E2D24016EDB
:1008F800FF0E2E20026E000E2F20036E000E3020F9
:10090800046E70C00FF071C010F072C08AF073C02E
:100918008BF01E0E00018A25886F000E8B21896FCF
:1009280074C009F075C00AF076C084F077C085F00D
:10093800000E836F000E826F09C086F00AC087F030
:100948000A5004E14E0E095CD8A006D08A88000E31
:10095800956F010E946F06D00A5004E1490E095CA8
:10096800D8A08A9810BE06D0105023E1060E0F5C5E
:10097800D8B01FD00EBE06D00E501BE1060E0D5C7F
:10098800D8B017D00B040C10D8A408D0000E206ED5
:100998001F68000E1E6E000E1D6E07D0000E206E22
:1009A800000E1F6E000E1E6E1D68000E916F010E68
:1009B800906F18BE06D018503AE11E0E175CD8B0DA
:1009C80036D09BBF34D09B5104E11E0E9A5DD8A04F
:1009D8002ED017C02DF018C02EF02D1E2E1E2D4A19
:1009E8002E2A9A512D269B512E222EBE06D02E50ED
:1009F8001EE11E0E2D5CD8B01AD01CBE18D01C509B
:100A080004E1020E1B5CD8A012D023502410D8A4F5
:100A18000ED01BC0BBFF000E296E000E286E9EEC88
:100A280007F09E929D82000E246E0E0E236E1ABE53
:100A380006D01A503BE11E0E195CD8B037D0000121
:100A48009DBF34D09D5104E11E0E9C5DD8A02ED0D0
:100A580019C02DF01AC02EF02D1E2E1E2D4A2E2A3A
:100A68009C512D269D512E222EBE06D02E501EE1C1
:100A78001E0E2D5CD8B01AD01CBE18D01C5004E134
:100A8800020E1B5CD8A012D023502410D8A40ED07C
:100A98001BC0BBFF000E296E000E286E9EEC07F0EF
:100AA8009E929D82000E246E170E236E16BE06D0EF
:100AB800165035E11E0E155CD8B031D0000199BF33
:100AC8002ED0995104E11E0E985DD8A028D015C0EB
:100AD8002DF016C02EF02D1E2E1E2D4A2E2A9851AE
:100AE8002D2699512E222EBE06D02E5018E11E0E0C
:100AF8002D5CD8B014D005C028F006C029F095ECBC
:100B080007F0F294F28A1F502010D8A404D0000EE7
:100B1800226E010E03D0000E226E040E216E14BE4A
:100B280006D0145037E11E0E135CD8B033D0000144
:100B380097BF30D0975104E11E0E965DD8A02AD0F9
:100B480013C02DF014C02EF02D1E2E1E2D4A2E2A55
:100B580096512D2697512E222EBE06D02E501AE1E0
:100B68001E0E2D5CD8B016D005C028F006C029F09E
:100B780090EC07F0A192A0821D501E10D8A405D0B9
:100B8800000E00019F6F030E04D0000E00019F6F3E
:100B9800020E9E6F175025181CE118502618D8A46D
:100BA80018D023502410D8B41CBE13D01C5003E115
:100BB8001B04D8A00ED01BC0BBFF000E296E000E70
:100BC800286E9EEC07F09E929D82000E246E0E0EFB
:100BD800236E195025181CE11A502618D8A418D0CD
:100BE80023502410D8B41CBE13D01C5003E11B049E
:100BF800D8A00ED01BC0BBFF000E296E000E286EB9
:100C08009EEC07F09E929D82000E246E170E236EB6
:100C180010BE06D010504EE1420E0F5CD8B0120044
:100C2800000190519111D8B4120081A21200155000
:100C380025181CE116502618D8A418D021502210C7
:100C4800D8A414D005C028F006C029F095EC07F008
:100C5800F294F28A1F502010D8A404D0000E226EFD
:100C6800010E03D0000E226E040E216E13502518BB
:100C780021E114502618D8A4120000019E519F119A
:100C8800D8A4120005C028F006C029F090EC07F09F
:100C9800A192A0821D501E10D8A406D0000E0001FB
:100CA8009F6F030E9E6F1200000E00019F6F020ED1
:100CB8009E6F120012000CEC07F0FA0E00017C6F18
:100CC800FF0E7D6F000E7E6F000E7F6FFF0E786F38
:100CD800FF0E796F000E7A6F000E7B6F000E266E86
:100CE8002568000E246E000E236E000E226E000E84
:100CF800216E21C09EF022C09FF0000E1C6E000ED7
:100D08001B6E000E056E000E066E000E076E000EBE
:100D1800086E000E1A6EC80E196E000E186EC80EF8
:100D2800176E000E166EC80E156E000E146EC80EE5
:100D3800136E000E9D6FC80E9C6F000E9B6FC80E41
:100D48009A6F000E996FC80E986F000E976FC80EB5
:100D5800966F000E936F000E926F000E106E000ECD
:100D68000F6E000E0E6E000E0D6E000E1E6E000E43
:100D78001D6E1DC01FF01EC020F0000E8F6F000EEC
:100D88008E6F000E916F000E906F000E0C6E000EAD
:100D98000B6E000E8D6F000E8C6F8D808A968A9870
:100DA8008A948B9489988A988C988C9A8C9C8C9E1F
:100DB8008B908B92D08EF1849F90A2829F828C948C
:100DC8008C968C908C92000EA16F000EA06FFC9EEA
:100DD800FFD7420EF66E0F0EF76E000EF86E090082
:100DE800F5CFC5F00900F5CFC6F000EE60F04C0E67
:100DF800EE6AE806FDE100EE01F0270EEE6AE8066D
:100E0800FDE145904592000EF86E00015FEF06F097
:100E1800200E926E230E936E180E946E000E956E31
:100E2800040E966EA60EE82EFED700D047EC07F00B
:100E38007CEC07F09AEC07F053EC07F072EC07F043
:100E480068EC07F0BB685EEC07F01200CE50CFCF1D
:100E58002AF02B6A2AC02BF02A6A2A102C6E2B50F3
:100E68002D6E2CC028F02DC029F012002C6E2850B1
:100E78002CC02AF02B6A2AC02BF02A6A2A10286E66
:100E88002B50296E1200000E0F01386F000E396FBB
:100E9800000E3A6F000E3B6F000E3C6F1200F29A84
:100EA800D590D582D594D59CD596D598D59AD58EFA
:100EB800F2861200A092B18AB188B1963F0EB1169F
:100EC800B182B180F28612009D92BA86BA88BA8A37
:100ED800BA8CBA80BA82BA84F28612009D90CD8A02
:100EE800CD98CD963F0ECD16CD82CD80F2861200DC
:100EF800340EC66E000EC76E928A94869488949AB1
:100F080012000001AD51CF6EACC0CEFF12002950C7
:100F1800CF6E28C0CEFF12002950B36E28C0B2FF92
:100F280012002950D76E28C0D6FF12009380F19C7A
:0C0F3800F286120028C0BCFF12007F00EF
:020000040020DA
:08000000FFFFFFFFFFFFFFFF00
:020000040030CA
:0E000000FF32193CFFBF80FF0FC00FE00F4022
:00000001FF
